:020000040040BA
:1000000018A10020B1244000792540007925400046
:100010007925400079254000792540000000000046
:1000200000000000000000000000000079254000F2
:100030007925400000000000792540007925400026
:100040007925400079254000792540007925400038
:100050007925400079254000792540000000000006
:10006000792540007925400000000000AD024000E5
:10007000C502400000000000A1124000490D4000F0
:1000800000000000000000007925400079254000B4
:10009000792540007925400079254000E50F400092
:1000A0007925400079254000000000000000000094
:1000B00000000000792540007925400079254000A6
:1000C00079254000792540007925400010B5054C80
:1000D000237833B9044B13B10448AFF300800123F4
:1000E000237010BD686B0020000000001C7E4000E3
:1000F0000C4B43B10C480D4910B5AFF300800C48D0
:10010000036823B910BD0A48036833B97047094B27
:10011000002BF7D0BDE810401847064B002BF5D058
:10012000184700BF000000001C7E40006C6B0020E0
:100130001C7E40000000000080B584B000AF7860F5
:10014000396078682C4B9847F86078682B4B984753
:100150000246FB681340FB60FB68002B3CD0002389
:10016000BB6034E0264ABB681B0113441A683B6835
:100170009A4226D1224ABB681B01134404331A68F1
:10018000FB681340002B1CD01D4ABB681B011344A5
:100190000C331B681A49BA6812010A4410681849DE
:1001A000BA6812010A440432126811469847144A88
:1001B000BB681B01134404331B68DB43FA6813401C
:1001C000FB60BB680133BB60BB68062B03D8FB68D0
:1001D000002BC7D100E000BF0A4B1B68002B07D0E3
:1001E000094B1B68002B03D0074B1B6878689847A6
:1001F00000BF1037BD4680BD171D40002D1D4000BB
:10020000846B0020EC700020F86B002080B586B075
:1002100000AFF860B9607A603B60214B1B68062B29
:1002200001D9012338E00023FB7511E0FB7D1B01A0
:100230001C4A13443B613B691A68BB689A4204D16B
:100240003B695A687B689A4208D0FB7D0133FB7595
:10025000FA7D134B1B689A42E8D900E000BF3B6966
:10026000BA681A603B697A685A603B693A689A6072
:100270003B693A6ADA60FA7D094B1B6801339A429E
:1002800004D1074B1B680133054A13603A6879684B
:10029000F868054B9847002318461837BD4680BDBF
:1002A000F46B0020846B0020791C400080B500AF07
:1002B0000B210248024B984700BF80BD000E0E4044
:1002C0003901400080B500AF0C210248024B98472D
:1002D00000BF80BD00100E403901400080B489B0DD
:1002E00000AFF860B9607A60BB681A017B689A4217
:1002F00002D81023FB6101E00823FB617B68DA0070
:10030000FB69B96801FB03F35B081A44FB69B96830
:1003100001FB03F3B2FBF3F3BB61BB69DB087B6159
:10032000BB6903F007033B617B69002B03D07B694A
:10033000B3F5803F01D301230FE0FB69082B05D102
:10034000FB685B6843F40022FB685A603B691A044F
:100350007B691A43FB681A62002318462437BD469E
:1003600080BC704780B582B000AF786078680F4B72
:1003700098477B6800225A607B6800225A627B683B
:1003800000229A6278680A4B98477868094B984728
:100390007868094B98477868084B98477868084B05
:1003A000984700BF0837BD4680BD00BF1506400016
:1003B000A1044000D104400033054000670540001F
:1003C0004D05400080B584B000AFF860B9607A6038
:1003D000F8681A4B98471A4B00221A60BB68002B2A
:1003E00009D0BB681B687A681946F868154B9847AE
:1003F0000346002B01D001231BE0BB685A68BB6891
:100400009B681A43BB681B691A43BB68DB681A43C5
:100410000B4B1B6813430A4A1360094B1B68084ABD
:100420001360FB685A68064B1B681A43FB685A60E6
:10043000002318461037BD4680BD00BF650340004D
:10044000FC6B0020DD02400080B584B000AFF86096
:10045000B9607A607A68B968F8680A4B98470346C9
:10046000002B01D0012308E0FB685B6823F00F0339
:1004700043F00202FB685A60002318461037BD465D
:1004800080BD00BFC503400080B483B000AF78607A
:100490007B6840221A6000BF0C37BD4680BC7047A5
:1004A00080B483B000AF78607B6888221A6000BF98
:1004B0000C37BD4680BC704780B483B000AF786015
:1004C0007B6810221A6000BF0C37BD4680BC7047A5
:1004D00080B483B000AF78607B6824221A6000BFCC
:1004E0000C37BD4680BC704780B483B000AF7860E5
:1004F00039607B683A689A6000BF0C37BD4680BCA3
:10050000704780B483B000AF786039607B683A6828
:10051000DA6000BF0C37BD4680BC704780B483B042
:1005200000AF78607B685B6918460C37BD4680BCBD
:10053000704780B483B000AF78607B684FF48072FE
:100540001A6000BF0C37BD4680BC704780B483B0D2
:1005500000AF78607B684FF400321A6000BF0C3740
:10056000BD4680BC704780B483B000AF78607B68C4
:100570004FF400221A6000BF0C37BD4680BC7047A4
:1005800080B483B000AF7860396000BF7B685B697E
:1005900003F00203002BF9D03B68C3F308027B6829
:1005A000DA61002318460C37BD4680BC7047000056
:1005B00080B582B000AF7860396007E03B685A1CB4
:1005C0003A601B7819467868044B98473B681B785B
:1005D000002BF3D100BF0837BD4680BD8105400028
:1005E00080B483B000AF786039607B685B6903F0EA
:1005F0000103002B01D1012306E07B689B69C3F353
:1006000008023B681A60002318460C37BD4680BCC0
:100610007047000080B483B000AF78607B68044A04
:10062000C3F8E42000BF0C37BD4680BC704700BF54
:100630000041535580B483B000AF78607B684FF4BD
:1006400000425A6000BF0C37BD4680BC70470000B6
:1006500080B483B000AF78607B68072B25D801A2F7
:1006600052F823F0850640008B06400091064000BA
:10067000970640009B0640009F064000A3064000EE
:10068000A70640004FF4FA4310E04FF400430DE09A
:100690004FF400430AE0084B08E0084B06E0084B23
:1006A00004E0074B02E0064B00E0002318460C373D
:1006B000BD4680BC704700BF00093D0000127A00B3
:1006C000001BB70080B500AF0620044B98470246D8
:1006D00013469B0013449B00184680BD5106400002
:1006E00080B500AF024B984703465B08184680BDB3
:1006F000C506400080B48BB000AF78600B46FB703D
:100700007B687B62FB7887F823307B6AFB61FB693F
:10071000BB61BB695B097B617B6903F5001303F275
:1007200007735B023B6197F82330002B09D07B6A8B
:10073000FB60FB6803F01F0301229A403B691A63C8
:1007400008E07B6ABB60BB6803F01F0301229A408C
:100750003B695A6300BF2C37BD4680BC7047000020
:1007600080B483B000AF0346FB71FB79303B162B9E
:1007700050D801A252F823F0D5074000D907400015
:10078000DD074000E1074000E5074000E9074000C1
:10079000ED074000F1074000F5074000F907400071
:1007A00015084000150840001508400015084000D5
:1007B000150840001508400015084000FD074000DE
:1007C0000108400005084000090840000D084000ED
:1007D0001108400000231DE001231BE0022319E063
:1007E000032317E0042315E0052313E0062311E09B
:1007F00007230FE008230DE009230BE00A2309E09B
:100800000B2307E00C2305E00D2303E00E2301E09A
:100810000F23FFE718460C37BD4680BC704700BF6A
:1008200090B58DB000AF002387F82F30002387F8F4
:100830002E300023BB625423FB6023233B61002343
:10084000BB6107F10C0300211846634B9847BAE0DF
:1008500097F82E30614AD35CDBB23A2B40F0AE8081
:1008600097F82E3001335D4AD35CDBB218465C4BFF
:10087000984703461C0197F82E300233574AD35C41
:10088000DBB21846564B9847034623443B6200238D
:10089000FB610023FB7697F82E3008334F4AD35C78
:1008A000DBB218464E4B98470346052B79D801A278
:1008B00052F823F0CD0840009B094000A3094000F6
:1008C000A3094000A3094000A309400097F82E3077
:1008D0000333424AD35CDBB21846414B9847034688
:1008E00003F580631C0197F82E3004333B4AD35C38
:1008F000DBB218463A4B9847034623441C0197F84D
:100900002E300533354AD35CDBB21846344B98475A
:10091000034623441C0197F82E3003332F4AD35C3F
:10092000DBB218462E4B984703462344FB61002355
:100930007B622DE097F82E207B6A5B00134409331D
:10094000264AD35CDBB21846254B984703461B0169
:10095000DCB297F82E207B6A5B0013440A331F4AEF
:10096000D35CDBB218461E4B984703462344FB7604
:10097000FA697B6A1A44FB7E38461A491A4CA0472A
:100980003B4601211846144B98477B6A01337B6232
:100990007A6A3B6A9A42CDD303E0012387F82F306D
:1009A00000BF3B6ADAB297F82E301344DBB20B3348
:1009B00087F82E30BB6A0133BB6204E097F82E3013
:1009C000013387F82E3097F82F30012B7FF440AF9A
:1009D00000BF3437BD4690BD950E40000C0000208E
:1009E00061074000A4794000C12D40002DE9F84F77
:1009F00000AF00210020534B9847534B98470346C4
:100A000019464FF000020B461446DB1844EB040471
:100A10005B1844EB02044FEAC40B4BEA537B4FEAEA
:100A2000C30A53465C465B1844EB0204DB1844EBF4
:100A300004041946224643F2AF634FF0000411EB61
:100A4000030A42EB040B50465946404C43F2B06255
:100A50004FF00003A04703460C4618463C4B98470E
:100A600001210020374B984701210120354B984741
:100A7000354B9847034619464FF000020B46144683
:100A8000DB1844EB04045B1844EB02044FEAC4098E
:100A900049EA53794FEAC30843464C465B1844EB96
:100AA0000204DB1844EB04041946224643F2AF6308
:100AB0004FF0000411EB030842EB0409404649469D
:100AC000224C43F2B0624FF00003A04703460C46AD
:100AD00018461F4B9847002101201A4B98471A4B84
:100AE0009847034619464FF000020B461446DB18A0
:100AF00044EB04045B1844EB0204E60046EA537638
:100B0000DD002B4634465B1844EB0204DB1844EB53
:100B100004041946224643F2AF634FF00004CD1897
:100B200042EB040628463146084C43F2B0624FF0CF
:100B30000003A04703460C461846054B984700BFE4
:100B4000BDE8F88FF5064000E1064000C5294000E9
:100B50000100002080B483B000AF0346FB71084958
:100B600097F907305B09FA7902F01F02012000FAB9
:100B700002F241F8232000BF0C37BD4680BC70470D
:100B800000E100E080B483B000AF78607B68072BA1
:100B900025D801A252F823F0B90B4000BF0B40004A
:100BA000C50B4000CB0B4000CF0B4000D30B4000E7
:100BB000D70B4000DB0B40004FF4FA4310E04FF43A
:100BC00000430DE04FF400430AE0084B08E0084BF7
:100BD00006E0084B04E0074B02E0064B00E0002370
:100BE00018460C37BD4680BC704700BF00093D0069
:100BF00000127A00001BB70080B500AF0620044B3E
:100C00009847024613469B0013449B00184680BD3C
:100C1000850B400080B500AF024B984703465B0848
:100C2000184680BDF90B400080B500AF024B9847D5
:100C300003465B08184680BDF90B400080B582B0C2
:100C400000AF78607868034B984700BF0837BD460F
:100C500080BD00BF6521400080B48DB000AF7860DA
:100C60000B46FB707B68FB62FB7887F82B30FB6AD6
:100C70007B627B6A3B623B6A5B09FB61FB6903F554
:100C8000001303F207735B02BB6197F82B30012B53
:100C900009D1FB6A7B617B6903F01F0301229A4043
:100CA000BB691A610CE097F82B30002B08D1FB6A66
:100CB0003B613B6903F01F0301229A40BB695A6103
:100CC000FB6AFB60FB6803F01F0301229A40BB69CB
:100CD000C3F8A02000BF3437BD4680BC704780B445
:100CE0008BB000AF78600B46FB707B687B62FB7853
:100CF00087F823307B6AFB61FB69BB61BB695B09D9
:100D00007B617B6903F5001303F207735B023B61B0
:100D100097F82330002B09D07B6AFB60FB6803F057
:100D20001F0301229A403B691A6308E07B6ABB609B
:100D3000BB6803F01F0301229A403B695A6300BF5E
:100D40002C37BD4680BC704780B582B000AF0D48DF
:100D50000D4B984778607B6803F48053002B0CD0D0
:100D60000A4908480A4B98470A4B01221A70074B58
:100D70001B68DBB21846084B984700BF0837BD46D2
:100D800080BD00BF008002401D054000006C0020B7
:100D9000E1054000046C00209D0D400080B483B04C
:100DA00000AF0346FB71074B1B680749FA79CA5429
:100DB000044B1B680133034A136000BF0C37BD4668
:100DC00080BC7047086C0020986C0020B0B586B0DD
:100DD00000AF224B3C461D460FCD0FC495E80300E3
:100DE00084E803001E4B984702461E4B1A600F20F2
:100DF0001D4B98471B4B1A683B4619461B481C4B1A
:100E000098474FF0FF3119481A4B984717481A4B2B
:100E100098471648194B984701211448184B984792
:100E20000F20184B98474FF000611520164B98473C
:100E30004FF000611620144B984701211920134BE5
:100E4000984700211920124B98474FF00061182055
:100E50000D4B984700BF1837BD46B0BDB079400074
:100E6000290C40000C6C00203D0C4000008002402A
:100E7000490440000305400089044000B9044000D3
:100E8000E9044000550B4000451D4000590C40004E
:100E9000DF0C4000F0B583B000AF78600B46FB700C
:100EA00079681648164B9847164B984703461946DB
:100EB0004FF000020B461446A60046EA93769D00CA
:100EC0002B4634465B1844EB020443F2AF614FF00B
:100ED00000025D1844EB0206284631460A4C43F2F4
:100EE000B0624FF00003A04703460C461846074B7C
:100EF000984700BF0C37BD46F0BD00BF00800240E0
:100F0000B1054000150C4000C5294000010000203B
:100F100080B483B000AF0346FB71084997F90730EE
:100F20005B09FA7902F01F02012000FA02F241F88F
:100F3000232000BF0C37BD4680BC704700E100E0B5
:100F400080B483B000AF78607B68072B25D801A2FE
:100F500052F823F0750F40007B0F4000810F4000D6
:100F6000870F40008B0F40008F0F4000930F400011
:100F7000970F40004FF4FA4310E04FF400430DE0A8
:100F80004FF400430AE0084B08E0084B06E0084B2A
:100F900004E0074B02E0064B00E0002318460C3744
:100FA000BD4680BC704700BF00093D0000127A00BA
:100FB000001BB70080B500AF0620044B98470246DF
:100FC00013469B0013449B00184680BD410F400010
:100FD00080B500AF024B984703465B08184680BDBA
:100FE000B50F400080B582B000AF002109480A4B20
:100FF000984778607B6803F01003002B06D0074BFE
:101000001B78DBB20133DAB2044B1A7000BF083729
:10101000BD4680BD00000140872240001C6C0020BE
:1010200090B587B002AF184B9847F8601720174B60
:101030009847391D07F10802FB6800930B46F968D1
:101040000120134CA0477B6843F480431A460021DB
:101050001048114B9847BB68FA68B2FBF3F31A4685
:1010600000210C480D4B984717200D4B9847102234
:10107000002108480B4B9847002106480A4B984727
:1010800000BF1437BD4690BDD10F40006521400020
:10109000A922400000000140E52140003D2240001F
:1010A000110F4000612240001D22400080B483B037
:1010B00000AF0346FB71084997F907305B09FA79DD
:1010C00002F01F02012000FA02F241F8232000BFC3
:1010D0000C37BD4680BC704700E100E080B483B0AF
:1010E00000AF78607B68072B25D801A252F823F067
:1010F00011114000171140001D1140002311400044
:10110000271140002B1140002F11400033114000E7
:101110004FF4FA4310E04FF400430DE04FF4004366
:101120000AE0084B08E0084B06E0084B04E0074BD8
:1011300002E0064B00E0002318460C37BD4680BC99
:10114000704700BF00093D0000127A00001BB70085
:1011500080B500AF0620044B9847024613469B001B
:1011600013449B00184680BDDD10400080B500AFE1
:10117000024B984703465B08184680BD511140005A
:1011800080B500AF024B984703465B08184680BD08
:101190005111400080B582B000AF78607868034B91
:1011A000984700BF0837BD4680BD00BF652140009D
:1011B00080B48DB000AF78600B46FB707B68FB623B
:1011C000FB7887F82B30FB6A7B627B6A3B623B6A69
:1011D0005B09FB61FB6903F5001303F207735B0214
:1011E000BB6197F82B30012B09D1FB6A7B617B69CE
:1011F00003F01F0301229A40BB691A610CE097F8C3
:101200002B30002B08D1FB6A3B613B6903F01F03C5
:1012100001229A40BB695A61FB6AFB60FB6803F0DC
:101220001F0301229A40BB69C3F8A02000BF3437D6
:10123000BD4680BC704780B48BB000AF78600B4671
:10124000FB707B687B62FB7887F823307B6AFB61ED
:10125000FB69BB61BB695B097B617B6903F50013BB
:1012600003F207735B023B6197F82330002B09D030
:101270007B6AFB60FB6803F01F0301229A403B6915
:101280001A6308E07B6ABB60BB6803F01F0301229E
:101290009A403B695A6300BF2C37BD4680BC7047FB
:1012A00080B582B000AF0D480D4B984778607B68E1
:1012B00003F48053002B0CD00A4908480A4B984786
:1012C0000A4B01221A70074B1B68DBB21846084B09
:1012D000984700BF0837BD4680BD00BF00400240B0
:1012E0001D054000106C0020E1054000146C00203A
:1012F000F512400080B483B000AF0346FB71074B8A
:101300001B680749FA79CA54044B1B680133034A26
:10131000136000BF0C37BD4680BC7047186C0020BE
:10132000006D002080B584B000AF786039600C4B50
:1013300098470C4B00221A600023FB6007E00A4A22
:10134000FB68134400221A70FB680133FB60FB68E2
:10135000B3F57A7FF3D300BF1037BD4680BD00BF21
:101360006D134000186C0020006D002080B500AFA8
:101370001A491B481B4B98471B4918481B4B984759
:101380000346002B03D01A4B02221A6024E01949AD
:101390001248164B98470346002B03D0144B0422E7
:1013A0001A6019E014490D48104B98470346002B6A
:1013B00003D00F4B05221A600EE0104907480B4B73
:1013C00098470346002B03D0094B06221A6003E01E
:1013D000074B4FF47A621A6000BF80BD006D002099
:1013E000CC6C00200D2E4000C879400079314000BF
:1013F000206C0020D8794000F0794000007A40004D
:1014000080B483B000AF78603960044B01221A7059
:1014100000BF0C37BD4680BC704700BF1D6C00206C
:10142000B0B586B000AF224B3C461D460FCD0FC471
:1014300095E8030084E803001E4B984702461E4BC4
:101440001A600E201D4B98471B4B1A683B461946E5
:101450001B481C4B98474FF0FF3119481A4B9847CF
:1014600017481A4B98471648194B984701211448BA
:10147000184B98470E20184B98474FF000610520F5
:10148000164B98474FF000610620144B98470121F6
:101490000820134B984700210820124B98474FF023
:1014A000006107200D4B984700BF1837BD46B0BDFF
:1014B000087A400081114000246C00209511400002
:1014C00000400240490440000305400089044000F8
:1014D000B9044000E9044000AD104000451D400043
:1014E000B11140003712400090B583B002AF0B201D
:1014F0000E4B98470A224FF480510D480D4B9847E8
:101500000D4B009371234FF480520B2108480B4C74
:10151000A0470B200A4B98474FF480510448094BD1
:10152000984700BF0437BD4690BD00BF652140000D
:10153000000E0E404F1A4000251340000D024000DF
:10154000AD104000E31C400090B583B002AF0B200B
:101550000C4B98470A2201210B480C4B98470C4B27
:101560000093492301220B2107480A4CA0470B2076
:10157000094B984701210448084B984700BF04379E
:10158000BD4690BD65214000000E0E404F1A400040
:10159000011440000D024000AD104000E31C40006B
:1015A0002DE9F04F87B000AF00212120434B984731
:1015B000434B9847034619464FF000020B4614462A
:1015C000660146EAD3665D012B4634465B1A64EB3E
:1015D0000204A0007861786940EA937078619B000A
:1015E0003B61D7E904345B1844EB0204E200FA6083
:1015F000FA6842EA5372FA60DB00BB60D7E9023452
:101600001946224643F2AF634FF00004CD1842EB77
:101610000406284631462B4C43F2B0624FF00003DB
:10162000A04703460C461846274B98470121212026
:10163000224B9847224B9847034619464FF0000229
:101640000B46144660017860786840EAD3607860A1
:101650005B013B60D7E900345B1A64EB02044FEA9C
:10166000840B4BEA937B4FEA830A53465C465B1834
:1016700044EB02044FEA041949EA13794FEA0318CC
:1016800043464C461946224643F2AF634FF00004EE
:10169000CD1842EB0406284631460A4C43F2B062AC
:1016A0004FF00003A04703460C461846064B9847E8
:1016B00000BF1C37BD46BDE8F08F00BF37124000A9
:1016C0006D114000C52940000100002080B582B0A6
:1016D00000AF78607B68072B31D801A252F823F065
:1016E0003D17400001174000091740001117400046
:1016F00019174000211740002917400033174000F8
:101700000020114B98471AE001200F4B984716E034
:1017100000200E4B984712E010200C4B98470EE02B
:1017200020200A4B98470AE03E210020084B9847AA
:1017300005E03E210120064B984700E000BF00BFB6
:101740000837BD4680BD00BF991F400005204000FE
:101750007520400080B582B000AF78607B68072BB1
:1017600026D801A252F823F0891740008D174000B7
:101770008D1740009F1740009F1740009F174000A3
:101780009F1740009F174000012312E00B4B984722
:101790000346002B14BF01230023DBB209E0084BF2
:1017A00098470346002B14BF01230023DBB200E05F
:1017B000002318460837BD4680BD00BFD11F40003A
:1017C000ED20400080B483B000AF78607B68072BC9
:1017D00025D801A252F823F0F9174000FF17400066
:1017E000051840000B1840000F1840001318400067
:1017F000171840001B1840004FF4FA4310E04FF454
:1018000000430DE04FF400430AE0084B08E0084BAA
:1018100006E0084B04E0074B02E0064B00E0002323
:1018200018460C37BD4680BC704700BF00093D001C
:1018300000127A00001BB70080B582B000AF0346EB
:10184000FB7100BFFB791846054B9847034683F0B0
:101850000103DBB2002BF5D100BF0837BD4680BDC8
:101860005517400080B586B000AFF8607A603B60E5
:101870000B46FB72FB7A18460D4B984702467B6875
:10188000B2FBF3F37B617B693A6802FB03F37B6194
:101890003B68013B1A04074B13407A68D2B21343EA
:1018A00043F47C52FB681A6000BF1837BD4680BD08
:1018B000C51740000000FF0780B582B000AF786018
:1018C00039603B68002B08D1094B9847094A7B686F
:1018D0001B6843F00053936205E0074B9847054AA5
:1018E0007B681B68D36200BF0837BD4680BD00BF60
:1018F0000521400000040E403521400080B582B033
:1019000000AF78607B68002B03D1054B98470346F6
:1019100002E0044B9847034618460837BD4680BD91
:101920001D2140004D21400080B582B000AF03462C
:10193000FB71FB79033B042B08D8FB791846064B57
:101940009847FB791846054B984700E000BF00BF59
:101950000837BD4680BD00BFCD1640003918400095
:1019600080B582B000AF786000BF7868044B9847BC
:101970000346002BF9D0002318460837BD4680BD2A
:10198000FD18400080B500AF0620044B9847024682
:1019900013469B0013449B00184680BDC5174000AA
:1019A00080B500AF024B984703465B08184680BDE0
:1019B0008519400090B583B000AF1148114B98478E
:1019C0000620114B9847381D1423012206210F4C85
:1019D000A0473B1D002118460D4B984700200D4B9A
:1019E000984710200C4B98470C4B98470C4B984746
:1019F00003461846034B984700BF0C37BD4690BDC1
:101A0000000E2707192740002919400065184000DB
:101A1000B918400061194000191F4000812540009D
:101A2000A119400080B485B000AFF860B9607A6059
:101A30007B68002B03D0FB68BA685A6602E0FB683B
:101A4000BA681A6600BF1437BD4680BC704780B4C0
:101A500085B000AFF860B9607A60FB68BA68C3F817
:101A600084207B685B004FF40042B2FBF3F3013B40
:101A7000C3F30D02FB68C3F88C2000BF1437BD46CA
:101A800080BC704780B487B000AFF860B9607A60FE
:101A9000FB687A685A64BB68B3F1C05F4AD0B3F19F
:101AA000C05F08D8B3F1006F16D0B3F1805F2CD0BF
:101AB000002B69D064E0B3F1205F65D0B3F1205F03
:101AC00003D8B3F1005F4AD05AE0B3F1405F5BD076
:101AD000B3F1605F58D053E0FB681B6F7B61FB681C
:101AE0001A6F7B68D9437B690B401A40FB681A6701
:101AF000FB685B6F7B61FB685A6F7B68D9437B69CE
:101B00000B401A40FB685A673AE0FB681B6F7B6129
:101B10007A687B691A43FB681A67FB685B6F7B61B5
:101B2000FB685A6F7B68D9437B690B401A40FB689E
:101B30005A6725E0FB681B6F7B61FB681A6F7B6847
:101B4000D9437B690B401A40FB681A67FB685B6FDF
:101B50007B617A687B691A43FB685A6710E0FB680F
:101B60001B6F7B617A687B691A43FB681A67FB68A5
:101B70005B6F7B617A687B691A43FB685A6700BFB9
:101B8000FB687A685A6000E000BF1C37BD4680BC25
:101B90007047000080B584B000AFF860B9607A602B
:101BA000B968F868194B98477B6803F001031A4637
:101BB000B968F868164B98477B6803F00A03002B56
:101BC00003D0FB68BA681A6202E0FB68BA685A621E
:101BD0007B6803F00203002B04D0FB68BA68C3F8EB
:101BE000802008E07B6803F00803002B03D0FB682B
:101BF000BA68C3F88420FB68BA685A61FB68BA689F
:101C00001A6000BF1037BD4680BD00BFFD1C4000FC
:101C1000251A400080B584B000AFF860B9607A60E2
:101C20003B60B968F868124B9847BA69B968F868B8
:101C3000104B98473B68002B03D0FB68BA681A65C5
:101C400002E0FB68BA685A657B68002B03D0FB682A
:101C5000BA681A6302E0FB68BA685A63FB68BA683C
:101C60001A61FB68BA681A6000BF1037BD4680BDB4
:101C7000FD1C4000251A400080B485B000AFF8601C
:101C8000B9607A607B6803F01003002B20D0FB68FA
:101C9000BA68C3F8B0207B6803F02003002B04D09F
:101CA000FB68BA68C3F8D42003E0FB68BA68C3F8DD
:101CB000D0207B6803F04003002B04D0FB68BA6897
:101CC000C3F8C02008E0FB68BA68C3F8C42003E08A
:101CD000FB68BA68C3F8B42000BF1437BD4680BCA7
:101CE000704780B483B000AF786039607B683A6831
:101CF0001A6400BF0C37BD4680BC704780B483B007
:101D000000AF786039607B683A685A6400BF0C376E
:101D1000BD4680BC704780B483B000AF78607B68FC
:101D2000DB6C18460C37BD4680BC704780B483B06E
:101D300000AF78607B689B6C18460C37BD4680BC52
:101D40007047000090B587B002AF7860396078685E
:101D5000634B9847F8603B6803F0F043B3F1005FD2
:101D600067D0B3F1005F09D8B3F1805F2BD0B3F136
:101D7000C05F43D0B3F1006F0AD0A9E0B3F1405F78
:101D80007ED0B3F1605F7BD0B3F1205F6CD09FE079
:101D90007B6803F01F03012202FA03F31A464FF097
:101DA0000061F8684F4B98477B6803F01F030122DE
:101DB00002FA03F319463B6803F001031A46F86878
:101DC000494B984786E07B6803F01F03012202FA23
:101DD00003F31A464FF08051F868424B98477B68EE
:101DE00003F01F03012202FA03F319463B6803F0D4
:101DF00001031A46F8683C4B98476BE07B6803F098
:101E00001F03012202FA03F31A464FF0C051F8688B
:101E1000344B98477B6803F01F03012202FA03F357
:101E200019463B6803F001031A46F8682E4B9847A1
:101E300050E07B6803F01F03012202FA03F31A4605
:101E40004FF00051F868274B98477B6803F01F0359
:101E5000012202FA03F319463B6803F001031A4614
:101E6000F868214B984735E07B6803F01F03012297
:101E700002FA03F33A681946F8681C4B984729E0C0
:101E80007B6803F01F03012202FA03F319463B6843
:101E900003F06053B3F1605F0CBF01230023DBB29A
:101EA0001A463B6803F00403002B14BF01230023F0
:101EB000DBB218463B6803F00103002B14BF01237B
:101EC0000023DBB200930346F868094CA04701E009
:101ED000002300E0012318461437BD4690BD00BF23
:101EE000F51E4000851A4000251A4000951B400051
:101EF000151C400080B485B000AF78607B685B093A
:101F000003F5001303F207735B02FB60FB681846DE
:101F10001437BD4680BC704780B485B000AF786090
:101F20001C491C4B1B6B23F070027B6813430B6333
:101F30004FF40063FB6007E0FB68002B01D1012335
:101F400023E0FB68013BFB60124B9B6E03F0080330
:101F5000002BF1D00F4A0F4B1B6B23F0030343F010
:101F6000020313634FF40063FB6007E0FB68002B80
:101F700001D1012309E0FB68013BFB60054B9B6E2F
:101F800003F00803002BF1D0002318461437BD4698
:101F900080BC704700040E4080B483B000AF78600E
:101FA0007B68012B07D1084A074B9B6843F0254308
:101FB00043F480139360044B044A1A6000BF0C374B
:101FC000BD4680BC704700BF10140E40080000A53D
:101FD00080B400AF094B5B6903F08003002B07D08E
:101FE000074B9B6E03F08003002B01D0012300E020
:101FF00000231846BD4680BC704700BF10140E4039
:1020000000040E4080B483B000AF7860184A184BCB
:102010001B6A43F45C1343F00803136200BF144BC4
:102020009B6E03F40033002BF9D01149104B1B6A4F
:1020300023F45C1323F070037A68134343F45C13B6
:102040000B6200BF0A4B9B6E03F40033002BF9D0E8
:10205000074A074B1B6A23F09B7323F4803343F436
:102060005C13136200BF0C37BD4680BC704700BFD5
:1020700000040E4080B483B000AF786039607B68A4
:10208000002B08D01649164B1B6A164A1A40164BED
:1020900013430B621EE01249114B1B6A23F45C13BD
:1020A00023F003033A68120292B2134343F45C1321
:1020B00043F001030B6200BF094B9B6E03F0010369
:1020C000002BF9D0064A064B1B6A43F09B7343F47E
:1020D0008033136200BF0C37BD4680BC704700BF21
:1020E00000040E40FCFFC8FE0200370180B400AFC0
:1020F000034B9B6E03F480331846BD4680BC70478B
:1021000000040E4080B400AF034B4FF000529A62BF
:1021100000BFBD4680BC704700040E4080B400AFD5
:10212000034B9B6E03F002031846BD4680BC70470C
:1021300000040E4080B400AF034B0022DA6200BFFF
:10214000BD4680BC704700BF00040E4080B400AFA5
:10215000034B9B6E03F004031846BD4680BC7047DA
:1021600000040E4080B483B000AF78607B68222BFF
:1021700001D901232FE07B681F2B13D8184B9A69D4
:1021800001217B6801FA03F31A4001217B6801FAFF
:1021900003F39A421ED0124A01217B6801FA03F32D
:1021A000136117E07B68203B7B600D4BD3F808215F
:1021B00001217B6801FA03F31A4001217B6801FACF
:1021C00003F39A4206D0064A01217B6801FA03F321
:1021D000C2F80031002318460C37BD4680BC70475A
:1021E00000040E4080B487B000AFF860B9607A6038
:1021F000FA68BB689B0113447B617B6902221A6009
:102200007B694FF0FF329A627B691B6A7B697A684F
:102210005A6000BF1C37BD4680BC704780B483B095
:1022200000AF786039607A683B689B0113440522EF
:102230001A6000BF0C37BD4680BC704780B485B0C3
:1022400000AFF860B9607A60FA68BB689B0113441C
:102250001C337A681A6000BF1437BD4680BC7047D3
:1022600080B487B000AFF860B9607A60FA68BB6884
:102270009B0113447B617B697A685A6200BF1C37FB
:10228000BD4680BC704780B485B000AF78603960CF
:102290007A683B689B011344FB60FB681B6A184625
:1022A0001437BD4680BC704780B48DB000AFF86075
:1022B000B9607A603B6002233B6108237B61202385
:1022C000BB618023FB61BB6BDB0B3B620023FB62CA
:1022D0001AE0FB6A9B0007F13002134453F8203CDC
:1022E000BA68B2FBF3F3BB62BB6A1B0C7B62FA6891
:1022F000BB6A9A4201D9002323E0FA687B6A9A42BA
:1023000006D2FB6A0133FB62FB6A042BE1D900E0D1
:1023100000BFFB6A042B01D9002312E07B68002B6D
:1023200008D0FB6A9B0007F13002134453F8202CBD
:102330007B681A603B68002B02D03B68FA6A1A601F
:10234000012318463437BD4680BC704780B582B043
:1023500000AF78607868034B984700BF0837BD46E8
:1023600080BD00BF6521400080B500AF0B20034B4E
:1023700098470C20014B984700BF80BD4D2340007B
:1023800080B48DB000AF78600B46FB707B68FB6259
:10239000FB7887F82B30FB6A7B627B6A3B623B6A87
:1023A0005B09FB61FB6903F5001303F207735B0232
:1023B000BB6197F82B30012B09D1FB6A7B617B69EC
:1023C00003F01F0301229A40BB691A610CE097F8E1
:1023D0002B30002B08D1FB6A3B613B6903F01F03E4
:1023E00001229A40BB695A61FB6AFB60FB6803F0FB
:1023F0001F0301229A40BB69C3F8A02000BF3437F5
:10240000BD4680BC704780B48BB000AF78600B468F
:10241000FB707B687B62FB7887F823307B6AFB610B
:10242000FB69BB61BB695B097B617B6903F50013D9
:1024300003F207735B023B6197F82330002B09D04E
:102440007B6AFB60FB6803F01F0301229A403B6933
:102450001A6308E07B6ABB60BB6803F01F030122BC
:102460009A403B695A6300BF2C37BD4680BC704719
:1024700080B500AF0B4B9847012121200A4B9847AC
:1024800000212120094B984700210B20064B98473B
:1024900000210020044B984700210C20024B984754
:1024A00000BF80BD69234000812340000724400015
:1024B00080B584B000AF274BFB60274BBB60FA6848
:1024C000BB689A420DD907E0BB681A1DBA60FA686A
:1024D000111DF96012681A60BB68204A9342F3D359
:1024E00020E0FA68BB689A421CD21C4A1A4BD31AE5
:1024F0007B60FA687B681344043BFB60BA687B68C6
:102500001344043BBB600AE0BB681A1FBA60FA6858
:10251000111FF96012681A607B68043B7B607B685E
:10252000002BF1D100BF0E4BBB6004E0BB681A1D4D
:10253000BA6000221A60BB680A4A9342F6D30A4B7B
:10254000FB600A4AFB689360094B9847094B984720
:10255000FEE700BF1C7E400000000020686B0020EA
:10256000686B0020187100200000400000ED00E0C2
:10257000D52C4000A928400080B400AFFEE7000041
:1025800080B400AF5D4B1B6B03F00303032B00F221
:10259000968001A252F823F0A9254000C9254000E9
:1025A0001326400013264000554B5B6903F080035F
:1025B000002B04D0534B4FF400421A6080E0514B83
:1025C0004FF4FA421A607BE04C4B1B6A03F08073B5
:1025D000002B03D04B4B4C4A1A6071E0494B4B4ADD
:1025E0001A60464B1B6A03F07003102B08D0202B97
:1025F0000AD0002B00D00BE0424B444A1A6007E09F
:10260000404B434A1A6003E03E4B3F4A1A6000BF0A
:1026100056E03A4B1B6A03F08073002B03D0394B12
:10262000394A1A6019E0374B384A1A60334B1B6A33
:1026300003F07003102B08D0202B0AD0002B00D001
:102640000BE0304B314A1A6007E02E4B304A1A60DB
:1026500003E02C4B2C4A1A6000BF284B1B6B03F085
:102660000303022B15D1254B9B6A1B0CC3F30A03F2
:102670000133244A126802FB03F3224A13601F4B02
:102680009B6ADBB21F4A1268B2FBF3F31D4A136068
:1026900016E01A4BDB6A1B0CC3F30A030133194A19
:1026A000126802FB03F3174A1360144BDB6ADBB2B8
:1026B000144A1268B2FBF3F3124A136000E000BF41
:1026C0000E4B1B6B03F07003702B08D10D4B1B6876
:1026D000104AA2FB03235B080A4A13600AE0074B77
:1026E0001B6B1B0903F00703064A126822FA03F367
:1026F000044A136000BFBD4680BC704700040E4012
:1027000010140E40B4610020001BB70000093D000A
:1027100000127A00ABAAAAAA80B483B000AF786096
:102720007B68184A934204D8174B4FF080621A60B6
:1027300023E07B68154A934203D8134B144A1A606E
:102740001BE07B68134A934203D80F4B124A1A606E
:1027500013E07B68114A934203D80B4B104A1A606E
:102760000BE07B680F4A934204D8074B4FF00422DA
:102770001A6002E0044B0C4A1A6000BF0C37BD46D9
:1027800080BC7047FF2C3101000A0E40FF596202E5
:1027900000010004FF86930300020004FFB3C40499
:1027A00000030004FFE0F5050005000480B485B0D7
:1027B00000AF7860104BFB60104B1B68002B02D100
:1027C0000E4B0F4A1A600D4B1B68BB60BA687B68E2
:1027D0001A44FB689A4202DD4FF0FF3306E0074BD4
:1027E0001A687B681344054A1360BB68184614379F
:1027F000BD4680BC704700BFFCFF0120286C002054
:1028000018A1002080B483B000AF78607B68072BEC
:1028100025D801A252F823F0392840003F28400073
:10282000452840004B2840004F28400053284000D6
:10283000572840005B2840004FF4FA4310E04FF463
:1028400000430DE04FF400430AE0084B08E0084B5A
:1028500006E0084B04E0074B02E0064B00E00023D3
:1028600018460C37BD4680BC704700BF00093D00CC
:1028700000127A00001BB70080B500AF0620044BA1
:102880009847024613469B0013449B00184680BDA0
:102890000528400080B500AF024B984703465B080F
:1028A000184680BD792840002DE9F04F85B000AF73
:1028B000334B98473348344B9847344B9847344B05
:1028C000984700213348344B9847344B9847344B52
:1028D0009847344B9847344B9847344B9847344B80
:1028E0009847344B9847344B9847034619464FF066
:1028F00000020B461446A000F860F86840EA9370A6
:10290000F8609B00BB60D7E902345B1844EB02041B
:102910004FEAC40B4BEA537B4FEAC30A53465C466B
:102920005B1A64EB02044FEA041949EA13794FEA8F
:10293000031843464C465B1844EB0204E2007A60FD
:102940007A6842EA53727A60DB003B60D7E9003470
:102950001946224643F2AF634FF00004CD1842EB14
:10296000040628463146154C43F2B0624FF000038E
:10297000A04703460C461846114B9847B3E700BFE3
:10298000B519400050140E40350640007124400037
:1029900021104000000001401D2240002114400091
:1029A000E914400049154000A1154000CD0D40003C
:1029B000ED0940002108400095284000C52940004D
:1029C0000100002053B94AB9002908BF00281CBFE4
:1029D0004FF0FF314FF0FF3000F07AB9ADF1080C45
:1029E0006DE904CE00F006F8DDF804E0DDE902232D
:1029F00004B070472DE9F0478C460D460446089E0A
:102A0000002B51D18A4217466DD9B2FA82FEBEF12F
:102A1000000F0BD0CEF1200C01FA0EF520FA0CFCC1
:102A200002FA0EF74CEA050C00FA0EF44FEA174AC8
:102A3000250CBCFBFAF81FFA87F90AFB18CC45EA0B
:102A40000C4508FB09F3AB420AD9ED1908F1FF3236
:102A500080F02381AB4240F22081A8F102083D447E
:102A6000ED1AA4B2B5FBFAF00AFB105544EA05448E
:102A700000FB09F9A14509D9E41900F1FF3380F001
:102A80000A81A14540F2078102383C44A4EB0904C5
:102A900040EA08400021002E61D024FA0EF4002301
:102AA00034607360BDE8F0878B4207D9002E54D0A4
:102AB000002186E821000846BDE8F087B3FA83F1DB
:102AC000002940F08E80AB4202D3824200F2FA80AD
:102AD000841A65EB03050120AC46002E3FD086E842
:102AE0001010BDE8F08712B90127B7FBF2F7B7FA6B
:102AF00087FEBEF1000F34D1EB1B3A0C1FFA87FCA6
:102B00000121B3FBF2F8250C02FB183345EA03451B
:102B10000CFB08F3AB4207D9ED1908F1FF3002D2E4
:102B2000AB4200F2D1808046ED1AA3B2B5FBF2F0C1
:102B300002FB105543EA05440CFB00FCA44507D9F1
:102B4000E41900F1FF3302D2A44500F2B880184620
:102B5000A4EB0C0440EA08409DE731463046BDE84E
:102B6000F087CEF1200405FA0EF307FA0EF720FAEB
:102B700004F83A0C25FA04F448EA0308B4FBF2F12D
:102B80004FEA184502FB11441FFA87FC45EA044549
:102B900001FB0CF3AB4200FA0EF409D9ED1901F177
:102BA000FF3080F08A80AB4240F2878002393D449A
:102BB000EB1A1FFA88F5B3FBF2F002FB103345EA7B
:102BC000034500FB0CF3AB4207D9ED1900F1FF38C8
:102BD0006FD2AB426DD902383D44EB1A40EA014155
:102BE0008FE7C1F1200722FA07F88B4005FA01F4BC
:102BF00048EA030320FA07FE4FEA134CFD404EEA71
:102C0000040EB5FBFCF94FEA1E440CFB19551FFAE4
:102C100083F844EA054509FB08F4AC4202FA01F2E4
:102C200000FA01FA08D9ED1809F1FF3043D2AC429D
:102C300041D9A9F102091D442D1B1FFA8EFEB5FBD7
:102C4000FCF00CFB10554EEA054400FB08F8A045CB
:102C500007D9E41800F1FF3529D2A04527D9023859
:102C60001C4440EA0940A4EB0804A0FB02894C453F
:102C7000C6464D4615D312D056B1BAEB0E0364EBDF
:102C8000050404FA07F7CB401F43CC40376074605B
:102C90000021BDE8F0871846F8E69046E0E6C24518
:102CA000EAD2B8EB020E69EB03050138E4E72846E7
:102CB000D7E7404691E78146BEE7014678E702380C
:102CC0003C4445E7084608E7A8F102083D442BE7E5
:102CD000704700BF70B50F4E0F4D761BB61018BF72
:102CE000002405D0013455F8043B9847A642F9D199
:102CF0000A4E0B4D761B05F07BF8B61018BF00246A
:102D000006D0013455F8043B9847A642F9D170BD6E
:102D100070BD00BFFC7D4000FC7D4000047E400093
:102D2000FC7D400070B4860746D0541E002A41D076
:102D3000CAB2034602E014F1FF343BD303F8012B7F
:102D40009D07F8D1032C2ED9CDB245EA05250F2CCD
:102D500045EA054519D903F110022646103E0F2E0B
:102D600042F8105C42F80C5C42F8085C42F8045CE3
:102D700002F11002F2D8A4F1100222F00F0204F0C6
:102D80000F041032032C13440DD91E462246043A78
:102D9000032A46F8045BFAD8221F22F00302043209
:102DA000134404F003042CB1C9B21C4403F8011B02
:102DB0009C42FBD170BC704714460346C2E700BF7B
:102DC0000EB4F0B59CB021AB0F4953F8042B01931E
:102DD00005466FF00044086802954FF402774FF6FD
:102DE000FF7602A90695ADF8147004940794ADF827
:102DF000166000F0CDFA029B00221A701CB0BDE8EC
:102E0000F04003B0704700BFB861002080EA0102C3
:102E1000844612F0030F4FD111F0030F32D14DF859
:102E2000044D11F0040F51F8043B0BD0A3F1013213
:102E30009A4312F0803F04BF4CF8043B51F8043B26
:102E400016D100BF51F8044BA3F101329A4312F09E
:102E5000803FA4F101320BD14CF8043BA24312F0A5
:102E6000803F04BF51F8043B4CF8044BEAD02346A2
:102E70000CF8013B13F0FF0F4FEA3323F8D15DF854
:102E8000044B704711F0010F06D011F8012B0CF81C
:102E9000012B002A08BF704711F0020FBFD031F894
:102EA000022B12F0FF0F16BF2CF8022B8CF800201B
:102EB00012F47F4FB3D1704711F8012B0CF8012B9E
:102EC000002AF9D1704700BF2DE9F0414FF0010E03
:102ED000744600254FF0FF362B198B4200EB060796
:102EE0000DD23F5D10F803C0BC452DD21D46012414
:102EF000A3EB060E2B198B4200EB0607F1D34FF024
:102F00000108C2F800E0444600254FF0FF372B19B6
:102F1000994200EB070E0ED91EF804E010F803C02A
:102F2000F44518D91D460124A3EB07082B19994233
:102F300000EB070EF0D80137701C874224BFC2F89F
:102F400000803846BDE8F0810CD04FF0010E2E46CF
:102F500074467544C0E70BD04FF001082F46444635
:102F60004544D4E7744512BF01341D460124B3E73C
:102F7000444512BF01341D460124C8E72DE9F04F36
:102F8000ADF2144D164605468B461046194603AA67
:102F90001C46FFF799FF03AB81460DF20C4243F844
:102FA000044F9342FBD14CB1631E721E04A812F869
:102FB000011F40F8213013F1FF33F8D203994A463C
:102FC0003144304602F014FF00286FD109F1FF337D
:102FD0000093F31882460193234680465446584690
:102FE0009A4608EB0A073A1A0021284402F0B0FE7C
:102FF000002856D1002F54D0EB1904AA13F8013C35
:1030000052F823304BB124B1039A934201D2AAEB78
:103010000203984400243846E3E74C4523460AF16E
:10302000FF3E38BF4B46734513D208EB030216F838
:1030300003C0A85C84452A4406EB030106D02CE0BB
:1030400011F801CF12F8010F844526D101337345E1
:10305000F6D34C45009980F08980009B08EB030271
:10306000019BA85C1B7898422A447FD1019804F107
:10307000FF3B06E010F801CD12F801EDF44503D155
:1030800019464B1E9B45F5D101348C4270D8039CE8
:103090003846A044AAEB0404A3E7C9F10102904416
:1030A000B7E700200DF2144DBDE8F08FA4EB090343
:1030B0004B4538BF4B46013309F1FF38039306EB0C
:1030C000080358464FF0000ACB4699460AEB04071E
:1030D0003A1A0021284402F03BFE0028E1D1002FDB
:1030E000DFD0EB1904AA13F8013C52F82330A3BB3C
:1030F000611E8B4515D20AEB0B0216F80B3015F842
:1031000002E09E452A4406EB0B005B4606D027E012
:1031100010F801CF12F801EFF44521D101338B42B1
:10312000F6D3B8F1FF3F11D00AEB080299F800106E
:10313000AB5C99422A440FD14B4605E013F8010DD0
:1031400012F8011D884207D1B342F7D105EB0A00FE
:103150000DF2144DBDE8F08F039B9A443846B5E755
:10316000CBF1010292449A443846AFE749468BE7D7
:1031700005EB080096E700BF0278002A00F0018105
:103180002DE9F04F91F8008085B04446B8F1000F6A
:1031900016D0864601F1010C012703E013F8014B1C
:1031A0006CB19C46A24214BF002707F001071EF82D
:1031B000012F6346002AF1D19CF80030FBB917B10A
:1031C00005B0BDE8F08F0E46054641460130ACEB38
:1031D000060403F0EFF9074688B1012CF0D0281956
:1031E000874294BFC11B01211F2C8B460BD923465C
:1031F00032463846FFF7C2FE05B0BDE8F08F00202A
:1032000005B0BDE8F08F03AA21463046FFF75CFE0B
:103210000399804602463144304602F0E9FD002819
:1032200057D108F1FF330093F31881460546019307
:103230005846B2466619321A0021384402F088FD19
:103240000028DCD1002EDAD0C845434638BF4B46B3
:103250009C4212D95A191AF80310B85C81423A44B8
:103260000AEB030E06D02CE01EF8010F12F8011F26
:10327000884226D101339C42F6D1C845009940F2DC
:103280008380009BEA18019BB85C1B7898423A4403
:103290007AD1019809F1FF3B06E010F801CD12F850
:1032A00001EDF44503D119464B1E5B45F5D109F1FB
:1032B0000109894557D8039B30461D44A4EB0309F7
:1032C000B8E7C8F1010215441D444FF0000930462B
:1032D000B0E7A4EB0803434538BF4346013308F188
:1032E000FF39039306EB090358460025BB469A466F
:1032F00067193A1A0021584402F02AFD00287FF489
:103300007EAF002F3FF47BAF444515D908EB050293
:1033100016F808301BF8020098425A4406EB0801E0
:10332000434606D023E011F801EF12F8010F86455D
:103330001DD101339C42F6D1B9F1FF3F12D005EB0C
:1033400009029AF800301BF8021099425A4414D12D
:10335000534605E013F8010D12F8011D88420CD107
:10336000B342F7D15F46781905B0BDE8F08FC8F1D8
:10337000010215441D443846BAE7039B38461D44F4
:10338000B6E70B7813B97047414690E700207047C5
:103390002DE9F04FC3B00C460B9192460F930C9061
:1033A00002F00EFA03681A93184603F089F9A3890C
:1033B0001990190603D52369002B01F0038000231F
:1033C0000DF1C8091393159314932793269318931B
:1033D0001B930993CDF89490C846169317939AF8C7
:1033E00000305446E3B1252B02D119E0252B03D040
:1033F00014F8013F002BF9D1A4EB0A0585B1269BF7
:10340000279AC8F800A001332A44072BC8F80450B3
:10341000279226937FDC08F10808099B2B44099327
:103420002378002B7FD000231A468DF87730194679
:103430000D939B464FF0FF3063780A9004F1010A28
:103440000AF1010AA3F12000582800F2C183DFE845
:1034500010F03802BF03BF034002BF03BF03BF0326
:10346000BF03BF03BF0345020302BF035D006B023E
:10347000BF0386029D039D039D039D039D039D0342
:103480009D039D039D03BF03BF03BF03BF03BF0392
:10349000BF03BF03BF03BF03BF0337035703BF030C
:1034A0005703BF03BF03BF03BF039803BF03BF039B
:1034B000AD03BF03BF03BF03BF03BF035902BF0375
:1034C000BF031E03BF03BF03BF03BF03BF03BF038D
:1034D000BF03BF03BF03BF03C602DB02570357038B
:1034E00057038B02DB02BF03BF039002BF039D02A1
:1034F000CC01B4020802BF03E101BF037E00BF0399
:10350000BF030D020D980F9340420D904BF0040B3A
:103510009AF8003094E725AA0B990C9803F03EF92D
:1035200040B9C84679E7279B23B10C980B9925AA87
:1035300003F034F90B9B9B8913F0400F099B18BFD4
:103540004FF0FF330993099843B0BDE8F08F1BF0AB
:10355000200F119340F0DD810F9A1BF0100F1346DE
:1035600040F06E851BF0400F00F06A85148804322D
:10357000002501230F9200278DF877700A994A1CC5
:1035800000F065822BF08002079254EA050240F0B9
:103590006482002940F03C84002B40F0D7841BF06B
:1035A00001030E9300F0048642AE302306F8413D3D
:1035B0000A9B0E9A9342B8BF1346089300231293B6
:1035C00017B1089B01330893079B13F00203109374
:1035D00002D0089B02330893079B13F0840540F048
:1035E0000E830D9B089AA3EB020BBBF1000F40F377
:1035F0000683BBF1100F279C269A29DD43462146FE
:10360000A84610270C9C0B9D06E0ABF1100BBBF1FC
:10361000100F03F1080318DD0132B748269210316C
:10362000072A279183E88100EFDD25AA2946204655
:1036300003F0B4F800287FF47DAFABF1100BBBF1C1
:10364000100F2799269A4B46E6DC45460C469846CD
:103650000132A94B26925C44072A279488E808087F
:1036600000F398849DF8777008F1080877B1269BDD
:10367000013301340DF177010122072B27942693A2
:1036800088E8060000F3DB8308F10808109B6BB1A3
:10369000269B013302341EA90222072B279426936E
:1036A00088E8060000F3D68308F10808802D00F0B2
:1036B00015830A9B0E9A9F1A002F36DD102F269B2A
:1036C0008E4D27DD42462146B0464FF0100B2E4668
:1036D0000C9C0B9D04E0103F102F02F1080215DD39
:1036E00001331031072B2791269382E84008F2DD41
:1036F00025AA2946204603F051F800287FF41AAF86
:10370000103F102F2799269B4A46E9DC35460C4688
:103710004646904601333C44072B2794269388E87D
:10372000A00000F3818308F10808079BDF0500F182
:103730006882269B0E99C8F8006001330C44072B61
:103740002794C8F80410269300F34D8308F1080865
:10375000079B5B073AD50D9B089A9D1A002D35DD16
:10376000102D269B20DD10260C9FDDF82CB004E0E8
:10377000103D102D08F1080816DD01335E4A26932E
:103780001034072B279488E84400F1DD25AA594618
:10379000384603F003F800287FF4CCAE103D102D1E
:1037A000279C269BC846E8DC0133534A26932C44C9
:1037B000072B279488E8240008DD25AA0B990C988C
:1037C00002F0ECFF00287FF4B5AE279C099B0D9A10
:1037D00008998A42ACBF9B185B180993002C40F0F3
:1037E0000D8300232693C846F9E511931BF02003AF
:1037F00040F0E3811BF0100240F02E841BF04003E8
:1038000000F02A840F9913460A4604320C880F925E
:103810000025B0E60F9A1193166800248DF87740C2
:10382000151D002E00F0A7860A9A531C00F0098689
:103830002146304602F08CFA002800F0E186831B16
:103840000E930A940F95CDF81CB023EAE373089306
:1038500012949DF87770B3E69AF8003001222B217C
:10386000EEE54BF0200B9AF80030E9E51193002AC1
:1038700040F09587224B18931BF0200F40F01181E8
:103880000F9A1BF0100F134640F0E1831BF0400F1E
:1038900000F0DD83043314880F9300251BF0010F23
:1038A00000F00C8154EA050300F0088130239DF8F4
:1038B00044208DF878308DF879204BF0020B0223EC
:1038C00059E69AF8003000297FF4BAAD0122202190
:1038D000B6E54BF0010B9AF80030B1E50F9C236878
:1038E0000D9318460028234603F10403FFF60AAEA1
:1038F0000F939AF80030A3E5B07B4000C07B4000F6
:10390000907B40004BF0100B1BF0200F11933FF405
:1039100023AE0F9D073525F0070303F10802D3E915
:1039200000450F92012326E69AF800302A2B0AF16F
:10393000010400F02787A3F130000928A24600F215
:10394000AD8600231C461AF8013B04EB840400EB0F
:103950004404A3F130000928F5D90A9472E54BF02C
:10396000800B9AF800306BE54BF0400B9AF8003072
:1039700066E59AF800306C2B03BF9AF801304BF0E3
:10398000200B0AF1010A4BF0100B59E5002A40F018
:1039900011871BF0200F40F0F9841BF0100F40F04E
:1039A000AC841BF0400F00F0A8840F9A1368043217
:1039B0000F92BDF824201A8011E50F99B34B0C68C3
:1039C00018933022782304318DF8793011934BF01D
:1039D000020B0F9100258DF878200223CBE50F997B
:1039E00011930A688DF8A02000230A461F468DF81F
:1039F0007730043201230893CDF81CB00A97129750
:103A00000F920E9328AEDFE51193002A40F0EA866C
:103A10001BF0200F5DD11BF0100F40F008831BF04E
:103A2000400F00F004830F99B1F900400431E5170D
:103A300022462B460F91002A73F1000358DB0A99A6
:103A40009DF877704A1C4FF001037FF49BAD54EA58
:103A5000050200F0DF81CDF81CB0012B00F07B8265
:103A6000022B40F0068218984E46230904F00F01FD
:103A700043EA05732A091C461546435C06F8013DD6
:103A800054EA0503F1D1A9EB06030E9390E51193D7
:103A9000002A40F0A3867E4B18931BF0200F3FF4C2
:103AA000EFAE0F9D073525F0070303F108021BF069
:103AB000010F0F92D3E900457FF4F4AE02235AE5DB
:103AC0001193002A40F086864BF0100B1BF0200F5C
:103AD000A1D00F9D073525F00705D5E90023002A61
:103AE00005F108011D4673F100030F911446A6DA93
:103AF0002D27644265EB45058DF8777001233DE580
:103B00001193002A40F062860F9D073525F00703C8
:103B100003F108020F921A6815925B681493149BC4
:103B2000159D23F00044284621464FF0FF32594BA3
:103B300003F0FAFE002840F04A83284621464FF061
:103B4000FF32544B03F0D2FE002840F0408315A80A
:103B50000DC8149903F0C0FE002840F030859DF890
:103B600077704D4E4D4B2BF080000790119803223B
:103B7000002108920A914728D8BF1E460E92129142
:103B80001EE54BF0080B9AF8003059E4A3F1300021
:103B900000231C461AF8013B04EB840400EB4404A8
:103BA000A3F130000928F5D90D944BE44BF0100B2C
:103BB00011931BF020033FF41DAE0F9D073525F038
:103BC000070303F10802D3E900450F920023D2E472
:103BD0001193002A40F0E785119A002A3FF4A3AC24
:103BE000002301211F4608918DF8A020CDF81CB0BC
:103BF0008DF877300A9312930E9128AEE4E4279C57
:103C000034E5119B652B40F3A78015A80DC81499C6
:103C100003F058FE002800F05081269B204AC8F887
:103C20000020013301340122072B27942693C8F882
:103C3000042000F36A8308F108081F9B139A279C4D
:103C4000934203DB079BDD077FF582AD269B199925
:103C50001A9AC8F8002001330C44072BC8F8041046
:103C60002794269300F39E8308F10808139B5E1E99
:103C7000002E7FF76DAD102E269B0A4D40F3F58187
:103C800022461027DDF830B00B9C13E0907B4000FB
:103C90007C7B4000FFFFEF7F707B40006C7B40002F
:103CA000AC7B4000C07B400008F10808103E102E9D
:103CB00040F3DA8101331032072B2792269388E8EC
:103CC000A000F1DD25AA2146584602F067FD002834
:103CD0007FF430AC279A269BC846E7E70D9B089AED
:103CE0009F1A002F7FF7E5AC102F269BB64D27DDDE
:103CF00042462146B0464FF0100B2E460C9C0B9DC1
:103D000004E0103F102F02F1080215DD01331031DD
:103D1000072B2791269382E84008F2DD25AA294641
:103D2000204602F03BFD00287FF404AC103F102F2A
:103D30002799269B4A46E9DC35460C46464690467E
:103D400001333C44072B2794269388E8A00000F316
:103D5000328208F10808ACE4139B269F012B40F344
:103D6000FE81013701340123072F27942697C8F8D5
:103D70000060C8F8043000F3038208F10808199ABB
:103D80001A9BC8F8003001371444072F2794269750
:103D9000C8F8042000F3008208F1080815A80DC82F
:103DA000149903F08FFD139B002840F00181013B23
:103DB000013701361C44072F26972794C8F8006066
:103DC000C8F8043000F3278108F108081B9AC8F8E6
:103DD00004200137144421AB072F27942697C8F8F5
:103DE00000307FF7B3AC25AA0B990C9802F0D6FCF3
:103DF00000287FF49FAB279CC846A9E425AA0B990D
:103E00000C9802F0CBFC00283FF4EBACFFF792BB20
:103E1000DDF81CB0012B00F03481022B25D1CDF848
:103E20001CB0002400251EE625AA0B990C9802F070
:103E3000B5FC00287FF47EAB279CC84675E425AA14
:103E40000B990C9802F0AAFC00287FF473AB279C16
:103E5000C8461BE425AA0B990C9802F09FFC002889
:103E60007FF468AB279CC84620E4CDF81CB0002442
:103E70000025494600E03146E20842EA4572E8087A
:103E800004F0070305461446303354EA050201F8EE
:103E9000013C01F1FF36EED1079AD2077FF5F3AD71
:103EA000302B3FF4F0AD0239302306F8013CA9EB8A
:103EB00001030E930E46FFF77BBB1F99002940F3C9
:103EC0002E82129B139A9342A8BF1346002B1F46C3
:103ED0000DDD269BC8F8006001333C44072B279476
:103EE000C8F80470269300F31F8308F10808129B9A
:103EF000002FA8BFDB1B002B1F4640F3D680102FDE
:103F0000269B314D40F3ED8142462146B0464FF0AD
:103F1000100B2E460C9C0B9D04E00832103F102F16
:103F200040F3DB8101331031072B2791269382E880
:103F30004008F2DD25AA2946204602F02FFC002881
:103F40007FF4F8AA2799269B4A46E7E70A9B0E9337
:103F50004E46FFF72DBB002D08BF0A2CC0F08F8006
:103F60004E46204629460A220023FEF72BFD30321A
:103F700006F8012D2046294600230A22FEF722FDDD
:103F800004460D4654EA0503EBD1A9EB06030E9354
:103F9000FFF70EBB25AA0B990C9802F0FFFB002837
:103FA0007FF4C8AA9DF87770279CC846FFF75EBBD0
:103FB0005E1E002E7FF70AAF102E034D22DD224633
:103FC0004FF0100B0C9C06E0C07B4000103E102E02
:103FD00008F1080815DD01371032072F27922697C0
:103FE00088E82008F2DD25AA0B99204602F0D6FBCE
:103FF00000287FF49FAA103E102E279A269FC846BD
:10400000E9DC144601373444072F2794269788E8C3
:1040100060007FF7D9AE25AA0B990C9802F0BEFB81
:1040200000287FF487AA279C269FC846CEE60F9AD1
:10403000146813460433E5170F9322462B46FAE41F
:1040400004321C680F9201230025FFF794BA1C6804
:1040500004330F93002521E40F990A4604320C68BB
:104060000F920025FFF787BA144601333444072B1B
:104070002794269388E860007FF768ABB3E6DDF805
:104080001CB0CDF81CB042AE3034012306F8414DCF
:104090000E93FFF78DBA25AA0B990C9802F07EFBC0
:1040A00000287FF447AA279CC8461F9A139B9A4270
:1040B00044DB079BD90741D4139B12989A1A1D1A07
:1040C0009542A8BF1546002D0EDD2699C8F804506C
:1040D000013106442C440729C8F800602794269132
:1040E00000F33B8208F10808002DACBF561B1646B2
:1040F000002E7FF72DAB102E269BB04DB5DD22464E
:104100001027DDF830B00B9C04E008F10808103EE1
:10411000102EA9DD01331032072B2792269388E851
:10412000A000F2DD25AA2146584602F037FB002800
:104130007FF400AA279A269BC846E8E7269B199891
:104140001A99C8F8001001330444072B2794C8F8C3
:104150000400269300F3F58108F10808ACE7079BFB
:10416000DA073FF5FEAD013701340123072F27940D
:104170002697C8F80060C8F804307FF725AE4AE7F4
:1041800025AA0B990C9802F009FB00287FF4D2A90C
:10419000279C269FC846F2E525AA0B990C9802F0A9
:1041A000FDFA00287FF4C6A9279C269FC846F5E59E
:1041B0004E46FFF7FDB925AA0B990C9802F0EEFACE
:1041C00000287FF4B7A9279CC846FFF772BA159C50
:1041D00022462046149C2346214603F0A5FB0028D6
:1041E00040F086820A9B0133119B23F020030E933B
:1041F00000F0E281472B00F01E814BF4807307939F
:10420000149B1F1E159B0893BBBF3B4603F1004741
:1042100000232D231093119B662B00F0BB81462BAE
:1042200000F0DF800E9B089A452B0CBF0A9B0A9D6D
:1042300023A820A908BF5D1C049003911FA8022198
:104240003B460290019500910C9800F075FB119B84
:10425000672B064640F0E0811BF0010F00F046821C
:104260007419169A0898179B394603F02BFB0028FF
:1042700040F06581239BA34206D230215A1C239231
:104280001970239B9C42F9D89B1B13930E9B472BC1
:1042900000F0E980119B652B40F3CD81119B662BCB
:1042A0001F9B129300F09E81139B129A1946914214
:1042B00000F38A811BF0010F40F0138222EAE273BF
:1042C000089367230E921193109B002B40F0C4803B
:1042D0000A939DF87770FFF773B935460C4646464A
:1042E000904601333C44072B2794269388E8A0008E
:1042F0003FF7D1AE08F10808D7E60F9A13680432E9
:104300000F92099A1A60FFF76AB825AA0B990C98C0
:1043100002F044FA00287FF40DA9C8468DE4269BDC
:10432000274AC8F80020013301340122072B2794C3
:104330002693C8F8042072DC08F1080829B9139BF9
:104340001BB9079BD8077FF503AA269B19981A9AD1
:10435000C8F80020013302462244072B2792C8F8F0
:104360000400269300F38D8108F108080029C0F2AB
:1043700065811399C8F8006001338C18072B2794C6
:104380002693C8F804107FF7E1A92CE50F9A099944
:104390001368CD170846043229460F92C3E900017D
:1043A000FFF71DB825AA0B990C9802F0F7F9002821
:1043B0007FF4C0A8279CC84658E400BFC07B4000DB
:1043C000AC7B400040210C9801F00CFA0B9A106075
:1043D0001061002800F0F2810B9A40235361FEF730
:1043E000EEBF23A820A90A9C049003911FA80321D3
:1043F0000290089A01943B4600910C9800F09CFAB8
:1044000025460646119B462B06EB05047FF429AF93
:104410003378302B00F078811F9D2C4421E725AAAA
:104420000B990C9802F0BAF900287FF483A81F9921
:10443000279CC84682E70A9B002B08BF01230A93EA
:10444000DBE630460A9402F03BF90F950E90CDF86A
:104450001CB00346FFF7F9B92D2700238DF87770BC
:104460000A93FFF7AEB81F9B12931A46033304DB7F
:104470000A9B19469142BFF617AF119B023B11935D
:104480009DF844308DF88430129B013B002B1F9324
:10449000BDBF129BC3F101032D222B22092B8DF8E6
:1044A000852040F316810DF193042046AB4D00E0CA
:1044B000104685FB0312D917C1EBA20101EB810263
:1044C000A3EB42023032092900F8012C0B4600F11F
:1044D000FF32EDDC30330238D9B2844202F8011CDD
:1044E00040F265810DF18600134601E013F8011BCF
:1044F00000F8011BA342F9D101339B1A0DF186028A
:10450000134421AA9B1A139A1B93012A13440E9356
:1045100040F319810E9B199A13440E9323EAE37317
:10452000089300231293CFE625AA0B990C9802F06A
:1045300035F900287EF4FEAF279CC846D7E4234611
:10454000A2E625AA0B990C9802F028F900287EF41F
:10455000F1AF1F9A279CC846AEE525AA0B990C9887
:1045600002F01CF900287EF4E5AF1F9A139B279CEC
:104570009A1AC846B8E50A9B1296062B28BF06234E
:104580000A96374608930F95CDF81CB00E93744EDB
:10459000FFF716B823A820A90A9D049003911FA82D
:1045A00003210290089A01953B4600910C9800F077
:1045B000C3F9064644192BE706230A931DE62D2767
:1045C0008DF87770FFF7CDBA199A139B1344129A9E
:1045D0000E93002A40F3B08023EAE3730893672325
:1045E000119371E6002B40F3C3800A9A002A40F031
:1045F00099801BF0010F40F0958008930E9363E6BD
:104600000A9B08930E930A900F95CDF81CB0129058
:104610009DF87770FEF7D4BF119B472B7FF420AE37
:104620001BF0010F7FF4EEAE239B9B1B13930E9B9D
:10463000472B3FF418AF1F9B129321E74F421031D5
:10464000484D2FDA1024DDF830B004E008F10808F6
:10465000103F102F26DD01331032072B27922693AF
:10466000C8F80050C8F80440F0DD25AA0B99584658
:1046700002F094F800287EF45DAF279A269BC84686
:10468000E6E725AA0B990C9802F088F800287EF43A
:1046900051AF1F99279A269BC84667E600200A90CB
:1046A000FEF7D0BE01333A44072B88E8A0002792DA
:1046B000269308F108087FF75CAE25AA0B990C98A1
:1046C00002F06CF800287EF435AF279A269BC84686
:1046D0004FE6303330228DF887308DF8862022ABBC
:1046E0000FE7129B199A13440E9375E7239BCBE5B2
:1046F000149B1D4E002BB6BF2D279DF877708DF8AB
:1047000077701A4BFFF72FBA169A0898179B3946FD
:1047100003F0D8F800287FF47FAEC5F101051F959E
:104720002C449EE5129B199A13440A9A1A4422EAD1
:10473000E2730E920893C7E5129B0E9AC3F1010330
:104740001A441346D0E71BF0010312937FF4E2AE44
:104750000E9B23EAE3730893B6E500BF67666666BF
:10476000A47B4000C07B4000787B4000747B40000D
:104770000A9B13B91BF0010F02D0199B0133D4E738
:1047800001233AE70F9D9AF80130286840EAE0706B
:104790000A9028460430A2460F90FEF751BE8DF8CD
:1047A0007710FFF767B88DF87710FFF715BA0DF19E
:1047B0008603A6E68DF87710FFF7EBB80C9A0C236A
:1047C00013604FF0FF330993FEF7BDBE8DF87710ED
:1047D000FFF79AB98DF87710FFF776B98DF8771053
:1047E000FFF759B98DF87710FFF712B9024B13B1E3
:1047F000024800F005B87047000000008D574000E7
:10480000002301461A46184602F046B802690B69B1
:10481000934200F38D802DE9F04F03F1FF3801F151
:10482000140700F1140B57F828205BF828304FEAE2
:10483000880483B00132B3FBF2F90BEB040300945C
:1048400007EB040A0193B9F1000F39D000252E4679
:10485000BC46DE465CF8044BDEF80030A2B209FB31
:104860000255220C2C0C09FB0242ADB2751B96B20C
:10487000C6EB134615FA83F306EB23469BB243EAD5
:104880000643E2454FEA12454EF8043B4FEA2646FE
:10489000E0D2009B5BF8033093B9019C231F9B453A
:1048A0000CD254F8043C4BB9A4F1080302E01A6896
:1048B000043B1AB99B4508F1FF38F8D3C0F81080C3
:1048C000044601F069FD00282EDB09F101095D466F
:1048D000002357F8041B28688AB29A1A0B0C12FAA4
:1048E00080F2C3EB104303EB224392B242EA03424D
:1048F000BA4545F8042B4FEA2343EAD25BF8282057
:104900000BEB880382B91A1F93450BD253F8042C82
:1049100042B9083B02E01A68043B1AB99B4508F10A
:10492000FF38F8D3C4F81080484603B0BDE8F08FD4
:1049300000207047000000002DE9F04F016C9BB093
:104940000446279E92469B4641B1426C4A60012331
:1049500093408B6001F048FB00232364BBF1000F00
:104960005D4635DB002333609D4BAB4315D050468D
:1049700059460022002302F0A5FF804600282DD0D2
:10498000269A01231360289B002B00F0BD809548D8
:10499000186001381BB0BDE8F08F269A42F20F7301
:1049A0001360BAF1000F0DD1C5F3130555B9289B5B
:1049B0008D48002BEED000F10803289A13601BB03D
:1049C000BDE8F08F289B8948002BE3D0C31CF4E797
:1049D00001232BF000453360AB46C5E718AA19AB9D
:1049E0000192009352465B46204601F075FD2B0D67
:1049F000814671D0CBF3130242F07F51189FCDF85E
:104A000050805046A3F2FF3641F440110022784B0B
:104A100002F03CFB6CA3D3E9002302F0EBFC6CA397
:104A2000D3E9002302F034FBCDE90201304602F065
:104A30007BFC69A3D3E9002302F0DCFC02460B46B1
:104A4000DDE9020102F024FBCDE9040102F082FF5E
:104A5000002202900023DDE9040102F03DFF00285E
:104A600040F07381029D162D00F25D81614B03EBD6
:104A7000C503D3E9000152465B4602F04BFF002814
:104A800000F0C5816B1E029300230E93BF1B7B1E9B
:104A9000069300F1548100230893029B002BC0F27F
:104AA0004581069A0D9311461944002306910C93F3
:104AB000249B092B2AD8052B40F35B86043B2493C7
:104AC0000025249B023B032B00F24286DFE813F013
:104AD000D403C902DF036104189F199E3E4406F205
:104AE0003243202B40F38E81C3F1400306F2124083
:104AF0009D402AFA00F0284302F006FC0123013E03
:104B0000A1F1F871149381E73B4843E70021616408
:104B10002046259101F042FA4FF0FF330A93259A7F
:104B20000F9301230490206424920B93199B002B74
:104B3000C0F2D980029A0E2A00F3D5802D4B03EBE8
:104B4000C203D3E90023CDE90823259B002BC0F243
:104B5000BA83DDE9085650462A463346594602F0E4
:104B600073FD02F0F7FE804602F0DEFB2A46334674
:104B700002F040FC0B4602465946504602F086FAC7
:104B8000049D08F130032B700A9B012B06460F464B
:104B900005F1010568D00022184B02F02BFC002221
:104BA000002306460F4602F08DFE002840F0888064
:104BB000CDF82C904FF0000ADFF840B00C94DDE9FE
:104BC000088928E0AFF3008061436F63A787D23F75
:104BD000B3C8608B288AC63FFB799F501344D33FEC
:104BE0000000F07FAD7B4000D07B4000DC7B4000CC
:104BF0000000F83F087C4000AC7B400000002440EF
:104C000002F0F8FB0022002306460F4602F05AFE8F
:104C1000002840F0C18342464B463046394602F0F8
:104C200013FD02F097FE044602F07EFB42464B461F
:104C300002F0E0FB02460B463046394602F026FA07
:104C400004F1300E049E05F801EBA5EB060E0A9E5A
:104C5000B645CDE9060152465B46D1D1A046DDF806
:104C60002C900C9C06460F4632463B463046394651
:104C700002F00EFA06460F4602460B46DDE9080131
:104C800002F02AFE48B932463B46DDE9080102F04F
:104C900019FEA8B118F0010F12D015F8018C049A72
:104CA0006B1E04E09A4200F0018413F8018DB8F104
:104CB000390F03F10105F5D008F1010883F80080F0
:104CC0004946204601F090F90022029B2A70269A5C
:104CD00001331360289B002B00F09E8304981D6015
:104CE0001BB0BDE8F08F0B9A002A3ED0249A012A0F
:104CF00040F311830A9B0C9A5F1EBA42C0F28F8365
:104D0000D71B0A9B002BC0F28B84089D0A9B089A34
:104D10001A440892069A01211A442046069201F08C
:104D2000FDF9064624E001230E93AFE6089A029BA4
:104D3000D21A5B420C93002308920D93B8E6C7F198
:104D40000103089300230693A7E6029D284602F07C
:104D5000EBFA02460B46DDE9040102F0B3FD002840
:104D60007FF480AE6B1E02937CE60C9F089D0B9E29
:104D7000002D0CDD069900290B4608DDA942089A92
:104D8000A8BF2B46D21AED1ACB1A089206930C9B99
:104D9000D3B10B9B002B00F0B782002F10DD314602
:104DA0003A46204601F056FA4A4601460646204653
:104DB00001F0BEF949468046204601F015F9C1468A
:104DC0000C9BDA1B40F0A1820121204601F0A6F9DC
:104DD0000D9B002B80461CDD01461A46204601F043
:104DE00039FA249B012B804640F3548200230C9314
:104DF000D8F8103008EB8303186901F03FF9C0F1CF
:104E0000200010E0C3F120050AFA05F074E60E90C8
:104E10003CE6249B012B40F3878200230C930D9BDF
:104E20000120002BE4D1069A104410F01F0000F07E
:104E3000A180C0F12003042B40F39E84089BC0F1A5
:104E40001C00034408931346034405440693089B3F
:104E5000002B05DD49461A46204601F04BFA8146F3
:104E6000069B002B05DD41461A46204601F042FA1A
:104E700080460E9B002B40F086800A9B002B40F35F
:104E800066820B9B002B00F09880002D05DD3146DB
:104E90002A46204601F02EFA06460C9B002B40F0D5
:104EA000378306960A9B049ADDF818B0013BD318A5
:104EB0000B930AF001030C931746C246514648462D
:104EC000FFF7A4FC31460546484601F065FA5A460C
:104ED0000A905146204601F07BFAC268804605F1EF
:104EE0003003002A40F02B8201464846089301F027
:104EF00053FA41460690204601F076F8069A089B40
:104F000032B9249921B90C9A002A00F0EF83249A2F
:104F10000A990029C0F29F8205D1249919B90C99E8
:104F2000002900F09882002A00F306830B9A3B7058
:104F300007F101089742454600F00C8349460023DB
:104F40000A22204601F05AF85E45814631464FF06C
:104F500000034FF00A02204600F0EB8101F04EF80A
:104F60005946064600230A22204601F047F84746E4
:104F70008346A3E71C20089B03440893069B034435
:104F80000544069363E74146484601F005FA0028C8
:104F9000BFF673AF029F494600230A222046013F15
:104FA000029701F02BF80B9B8146002B40F0B68353
:104FB0000F9B002B40F3BF830A93DDF810B00A9FCC
:104FC0005D4602E001F01AF8814641464846FFF787
:104FD0001DFC00F1300A05F801ABA5EB0B03BB4249
:104FE0004FF00A024FF0000349462046EADB049BDB
:104FF0000A9A012AACBF9B1801331D464FF0000BE3
:1050000049460122204601F075F94146814601F0EA
:10501000C3F9002840F33D8215F8012C04996B1E5A
:1050200004E08B4200F0AE8113F8012D392A03F120
:105030000105F6D001321A704146204600F0D4FF37
:10504000002E3FF43DAEBBF1000F05D0B34503D0B9
:105050005946204600F0C8FF3146204600F0C4FF04
:105060002EE600230B93029B259A13440F930133E2
:10507000012B1F461E460A93B8BF01270021172F98
:1050800061640AD9012204235B0003F11400874202
:10509000114602F10102F7D26164204600F07EFF62
:1050A0000E2E049020643FF641AD002D3FF43EAD3E
:1050B00002990029CDE910AB40F30282B84B01F010
:1050C0000F020D1103EBC203E906D3E9006740F1BB
:1050D000AE81B44B50465946D3E9082302F0B4FAE6
:1050E000CDE9120105F00F054FF0030A8DB1DFF88D
:1050F000B482EA0709D530463946D8E9002302F0E0
:1051000079F90AF1010A06460F466D1008F1080800
:10511000EFD13B463246DDE9120102F095FA07462F
:1051200088460E9B43B100229F4B3846414602F011
:10513000D3FB002840F08682504602F0F5F83A464C
:10514000434602F057F9994B002201F0A1FF0A9B58
:105150000546A1F15076002B00F03E81029B15938D
:105160000A9B12930B9B002B00F0FA81129A8C4B36
:105170008F4903EBC20353E90223002002F064FAD3
:105180002A46334601F082FF82468B463846414626
:1051900002F0E0FB054602F0C7F802460B4638462F
:1051A000414601F073FF30355FFA85F8049D0646ED
:1051B0000F4685F8008002460B4650465946013599
:1051C00002F0A8FB002854D132463B460020764925
:1051D00001F05CFF02460B465046594602F09AFB2E
:1051E000002840F07082129A012A00F01181129B6F
:1051F000049ACDF84890134499460DE000206A497E
:1052000001F044FF52465B4602F066FB002840F086
:1052100058824D4500F0FA80504659460022654BB1
:1052200002F0E8F80022634B82468B46304639464E
:1052300002F0E0F80F46064602F08CFB804602F0D2
:1052400073F802460B463046394601F01FFF08F15D
:1052500030085FFA88F852465B4605F8018B06462F
:105260000F4602F039FB32463B460028C6D0DDF837
:105270004890159B029323E500230B93259B002B5D
:1052800040F3DC801F461E460F930A93F6E6012387
:105290000B93F3E7BAF1000F7FF4A8ADCBF3130340
:1052A000002B7FF4BAAD2BF000473F0D3F05002FD8
:1052B00000F00D82089B01330893069B013306938F
:1052C00001230C93ABE50A9B002B3FF742AC40F067
:1052D00021820022384BDDE9080102F08BF85246AA
:1052E0005B4602F00DFBDDF828804646002841D0E1
:1052F000259B049DDB4302934146204600F074FE4B
:10530000002E3FF4DDACA7E60C9A4946204600F09B
:10531000A1FF814658E5149A002A00F0878103F224
:1053200033430C9F089DF2E4BAF1000F7FF475AD92
:10533000B4E700F063FE474606468346BEE50146F5
:105340002046069300F050FE0122069BE0E5249BD8
:10535000022B7FF796AD0A9B002BC9D1414605224F
:10536000204600F04BFE01468046484601F014F806
:105370000028BDDD029A04993123013202920B709C
:105380004D1CB9E7029A01320292049A312313703C
:1053900052E601230B9366E6DDF82C900C9C8FE41B
:1053A000087C4000E07B40000000F03F00001C4013
:1053B0000000E03F0000244000001440504601F08F
:1053C000B3FF3A46434602F015F80022C14B01F004
:1053D0005FFE0546A1F1507641460022BE4B38469D
:1053E00001F054FE2A46334682468B4602F092FA7A
:1053F0008046002840F010812A4606F100435046BE
:10540000594602F069FA18B1464671E7DDF848904E
:10541000DDE910ABFFF78ABB0498FFF7BBBA0C9B22
:105420000D9A0C97FB1A1A440D92002769E4DDE9E6
:1054300010234FF0020ACDE9122357E60021012381
:1054400061642046259300F0A9FD259B049020640B
:105450000A930F9329E6002AD046CDF818B09A4651
:1054600011DD49460122204600F044FF41468146B5
:1054700000F092FF002840F34681BAF1390F00F0A6
:10548000068105F1310AB34687F800A07D1C069E0F
:10549000D2E504D11AF0010F01D0BDE5154615F88B
:1054A000013C302B05F1FF32F8D0C5E504993022DC
:1054B0000A70029A15F8018C01320292FFF7FCBBC8
:1054C00000F0BB80029B5D42844B05F00F0203EBB2
:1054D000C203D3E90023DDE9100101F08BFF2D1198
:1054E0000746884600F02C817D4E4FF0020AEB07FC
:1054F00009D538464146D6E9002301F07BFF0AF181
:10550000010A074688466D1006F10806EFD108E645
:105510007168204600F042FD336902339A00054667
:1055200006F10C010C3000F093FC294601222046C4
:1055300000F0E0FE0690B5E4392BCDF818B0D04667
:1055400000F0A58003F1010AB34687F800A07D1C96
:10555000069E71E55A46D046B3469A4616464FE532
:10556000129B5E4901EBC3012A46334651E9020111
:1055700001F040FFCDE916013846414602F0EAF954
:10558000054601F0D1FE0B4602464146384601F081
:105590007DFD129B0F4604993035012B0D70064698
:1055A00001F1010526D0129B049ADFF83CB1CDF839
:1055B000489013444FF0000A994652465B463046E5
:1055C000394601F017FF0F46064602F0C3F9804640
:1055D00001F0AAFE08F1300802460B463046394673
:1055E00001F054FD05F8018B4D4506460F46E4D108
:1055F000DDF848903B4B0022DDE9160101F048FD43
:1056000032463B4602F068F9002846D0159B0293CB
:1056100015F8018CFFF743BB4FF000084646A9E69A
:10562000089B0A9A9D1A0023FFF771BB189B0C9FD9
:10563000089DC3F13603FFF76ABBDDE910784FF030
:10564000020A6EE50A9B002B3FF4B8AE0F9B002BBD
:105650007FF7DEAE0022244B3846414601F0CAFEF9
:10566000074688460AF1010001F05EFE3A464346CD
:1056700001F0C0FE0022174B01F00AFD029A0F9BB9
:105680001293013A0546A1F1507615926AE5392246
:10569000B3463A70069E7D1CC0E4DDE91623002067
:1056A000104901F0F3FC32463B4602F033F908B9E9
:1056B000AEE6154615F8013C302B05F1FF32F8D067
:1056C000D7E5DDF84890159B0293FFF7E8BA0C97F1
:1056D000FFF7A5BB00001C4000001440087C400000
:1056E000E07B40000000E03F00002440392BCDF873
:1056F00018B0D046DDF828B09A46C8D0BBF1000FEC
:105700003FF7BFAEBFE67FF4BEAE1AF0010F3FF425
:10571000BAAEB2E64FF000084646E9E5314600234E
:105720000A22204600F06AFC0F9B002B06460ADD89
:105730000A93FFF7AABB249B022B23DC0F9B3BE4BD
:105740004FF0020AEDE4249B022B1BDC0F9BEFE7DA
:10575000002565642946204600F020FC4FF0FF3309
:105760000A930F9301230490259520640B93FFF770
:10577000DDB90125FFF7A5B93FF469ABC0F13C00E5
:10578000FFF7F9BB0F9B0A93E5E500BF38B50A4C5C
:105790000A4D641BA4100AD004F18043013B05EBC1
:1057A0008305013C55F804399847002CF9D1BDE830
:1057B000384002F027BB00BF147E4000107E40003E
:1057C000044A054B1268506B002808BF1846F03099
:1057D000704700BFB8610020FC690020704700BF1F
:1057E000704700BF2DE9F04F01F10B06162E83B074
:1057F000054640F29E8036F0070600F1BD80B142BA
:1058000000F2BA8000F0BEFBB6F5FC7FC0F09382D8
:10581000730A00F0B880042B00F27981B30903F118
:10582000390003F1380EC300BF4F3B44A3F1080118
:105830005C68A14206D10CE0002A80F2AA80E468EC
:10584000A14206D0636823F003039A1B0F2AF3DDFD
:1058500070463C69DFF8E4E2744500F0AB816368B0
:1058600023F003039A1B0F2A00F39081002AC7F844
:1058700014E0C7F810E080F29D80B3F5007F80F05F
:105880006181DB0803F1010C99107A6857F83C80BC
:10589000C4F8088001238B4007EBCC01134308397F
:1058A000E1607B6047F83C40C8F80C40821001245E
:1058B00094409C4200F28B801C4206D120F00300F1
:1058C00064001C4200F10400FAD007EBC009CC468A
:1058D0008046DCF80C309C4507D16DE1002A80F24F
:1058E0007B81DB689C4500F06781596821F00301EA
:1058F0008A1B0F2AF2DDD3F80CC0D3F8088000937E
:105900009C19284646F0010642F001055E60C8F881
:105910000CC0CCF808807C613C61C4F80CE0C4F891
:1059200008E065605A5000F033FB009B03F1080467
:105930001EE0102920D800F025FB10261823022095
:10594000794F3B44A3F108025C68944200F03D812A
:105950006368E168A66823F00303234428465A6875
:10596000F16042F001028E605A6000F011FB0834D1
:10597000204603B0BDE8F08F00240C2320462B60A6
:1059800003B0BDE8F08F40204FF400734FF03F0E9E
:105990004AE72344E1685A68A66842F00102F160D0
:1059A00028468E605A6000F0F3FA0834204603B0AF
:1059B000BDE8F08F234428465A6842F001025A603D
:1059C00000F0E6FA0834204603B0BDE8F08FBC686A
:1059D000636823F00308B04504D3A8EB06030F2B3C
:1059E00000F38580DFF85891504BD9F800201B68F0
:1059F0000132334404EB080A00F0558103F580536B
:105A00000F3323F47F6B2BF00F0B5946284600F021
:105A1000BFFD411C024600F0FC80824500F2F78089
:105A2000434B19685944196000F04D81D9F80000C2
:105A300001301BBFA2EB0A0A5144C9F800201960CB
:105A400012F0070100F01581C1F10800C1F5805185
:105A50000244083102EB0B09C9F30B09A1EB090958
:105A6000494628460193009200F092FD431C9DE8B0
:105A70000C0000F04381801A484440F0010019688E
:105A8000BA604944BC425060196017D0B8F10F0F9A
:105A900040F2FB806068A8F10C0222F0070204EBE0
:105AA000020E00F001004FF0050C10430F2A606059
:105AB000CEF804C0CEF808C000F217811D4BBC68B8
:105AC0001A68914288BF19601B4B1A68914262683C
:105AD00088BF196022F003029642A2EB060301D8A8
