S01B00004E6574776F726B656450726F6772616D6D65722E737265633A
S21440000010390020690C4000650C4000650C40002B
S214400010650C4000650C4000650C40000000000088
S214400020000000000000000000000000650C4000DA
S214400030650C400000000000650C4000650C400068
S214400040650C4000650C4000650C4000650C4000A7
S214400050650C4000650C4000650C40000000000048
S214400060650C4000650C4000000000001102400096
S21440007025024000000000006D044000650C400072
S2144000800000000000000000650C4000650C4000C9
S214400090650C4000650C4000650C4000A503400020
S2144000A0650C4000650C40000000000000000000A9
S2144000B000000000650C4000650C4000650C4000E8
S2144000C0650C4000650C4000650C400010B5054CC2
S2144000D0237833B9044B13B10448AFF300800123AF
S2144000E0237010BD3C040020000000002C18400087
S2144000F00C4B43B10C480D4910B5AFF300800C488B
S214400100036823B910BD0A48036833B97047094BE2
S214400110002BF7D0BDE810401847064B002BF5D013
S214400120184700BF000000002C1840004004002084
S2144001302C184000000000002DE9F84381460F4689
S214400140124B984705464846114B9847054013D0F2
S214400150104C04F1600603E0B4420DD010345DB19B
S2144001602068B842F8D161682942F5D0E3689847DC
S214400170636825EA0305EFE7074B1B6823B1074B87
S2144001801B680BB148469847BDE8F8831509400000
S2144001901909400058040020E4080020CC04002040
S2144001A0F8B5184C2668062E29D84FF0000C644641
S2144001B0154F04E00134E4B2A446A64209D3A6464D
S2144001C025017D598D42F5D107EB04156D689542A2
S2144001D0F0D10D4D4FEA0E1E05EB0E0445F80E10FD
S2144001E06260A3600699E1600136664504BF054932
S2144001F00E6011461A46054B98470020F8BD012070
S214400200F8BD00BFC804002058040020E3084000A2
S21440021008B50B210148024B984708BD000E0E401A
S2144002203901400008B50C210148024B984708BDEB
S21440023000100E403901400010B40B01934214D90F
S214400240C9004B0803EBC202B2FBF1F2D3085C1EB6
S2144002504FF6FE718C4201D9012017E0416841F407
S214400260002141600CE0012010E0590801EBC20279
S214400270B2FBF3F2D3085C1E4FF6FE718C42F2D806
S214400280120402F4E0221A430262002010BC7047B7
S2144002900A4BC0F8E43000234360436283628823FD
S2144002A00360242303604FF4807303604FF40023FD
S2144002B003604FF400330360704700BF004153555E
S2144002C070B505460C4616460F4B984700220F4B16
S2144002D01A60A4B13246216828460D4B984702461C
S2144002E078B96368A1680B4321690B43E1680B4307
S2144002F006490B6069680B436B60104670BD01226F
S214400300FBE70122F9E700BF91024000D00400203D
S2144003103902400010B50446064B984740B902469D
S214400320636823F00F0343F002036360104610BD7A
S2144003300122FBE7C10240004023036070471023C0
S2144003400360704781607047C1607047406970477E
S214400350436913F0020FFBD0C1F30801C1610020CE
S2144003607047000070B50C46097839B10546044E12
S2144003702846B04714F8011F0029F9D170BD00BFC8
S21440038051034000436913F0010F05D08369C3F35E
S21440039008030B6000207047012070474FF400436D
S2144003A04360704708B500210548064B984710F053
S2144003B0100F04D0044A13780133DBB2137008BD23
S2144003C000000140A90B4000D404002030B585B0A1
S2144003D01720144B9847144D009502AB03AA2946A4
S2144003E00120124CA047124C029A42F4804200214F
S2144003F02046104B9847039AB5FBF2F20021204660
S2144004000D4B98474FF400020C4B1A601022002107
S21440041020460B4B9847002120460A4B984705B08C
S21440042030BD00BF250B4000000E2707B10B400033
S21440043000000140790B4000990B400000E100E0CD
S214400440A10B4000910B40000122014B1A707047EF
S214400450EC040020034B1A68034988541A6801329A
S2144004601A607047D8040020F804002010B50A48E7
S2144004700A4B984710F4805F00D110BD084C2146C7
S2144004800548084B98470122074B1A702068C0B2AF
S214400490064B9847F1E700BF004002404D0340003E
S2144004A0E404002085034000DC040020550440009E
S2144004B008B514491448154B984718B10222144BF6
S2144004C01A6008BD13491048104B984718B10422CB
S2144004D00F4B1A6008BD10490B480C4B984718B193
S2144004E005220B4B1A6008BD0C490748074B984736
S2144004F018B10622064B1A6008BD4FF47A62044BC8
S2144005001A6008BDA4174000F80400206912400095
S214400510E0040020B4174000CC174000DC17400031
S21440052008B5064B98470023054A136005491A4606
S214400530CA540133B3F57A7FFAD108BDB1044000FE
S214400540D8040020F804002030B587B06C461E4D15
S2144005500FCD0FC495E8030084E803001B4D1C4BE9
S2144005602B600E201B4B98471B4C2A68694620463A
S2144005701A4B98474FF0FF312046194B9847204674
S214400580184B98472046184B984701212046174B52
S21440059098474FF48042164B1A604FF00061052092
S2144005A0144CA0474FF000610620A047124B4FF472
S2144005B080721A61C3F8A0205A634FF0006107208A
S2144005C0A04707B030BD00BF8C174000E8040020AD
S2144005D0000E2707250B4000004002401503400050
S2144005E049034000390340003F03400045034000B4
S2144005F000E100E01D094000000E0E4030B583B01B
S2144006000B200E4B98470E4C0A224FF48051204642
S2144006100C4B98470C4B009371234FF480520B21A0
S21440062020460A4DA8474FF40062094B1A604FF423
S21440063080512046074B984703B030BD250B4000FD
S214400640000E0E40E107400021054000A101400099
S21440065000E100E01109400030B583B00B200D4B9F
S21440066098470D4C0A22012120460C4B98470C4BCC
S2144006700093492301220B2120460A4DA8474FF4F8
S2144006800062094B1A6001212046084B984703B088
S21440069030BD00BF250B4000000E0E40E107400075
S2144006A049044000A101400000E100E0110940007B
S2144006B038B50C460025094B1D7001460848094BC5
S2144006C09847094B1D60054A19461378DBB2A3428A
S2144006D002D20B68002BF8D038BD00BFD4040020EF
S2144006E00040024065034000E0040020064B1B68C3
S2144006F0064A1268934206DA034804490268013300
S2144007000A689A42FADC7047F4040020F00400209D
S21440071070B5054D02266E630448054CA0472E630F
S2144007200448A04770BD00BF00100E401C8A06005B
S2144007300100002025CA820038B50C4B4FF40062F9
S2144007405A61C3F8A0201C46094DE36B13F4006FB2
S2144007500BD12B78002BF8D003210648064B984740
S21440076000232B70FFF7E8FFEFE738BD000E0E4082
S214400770EC040020E4174000B106400010B50E48D7
S2144007800E4B98473E2100200D4B98470D4CA047F6
S2144007900028FCD00C4B98470C4A0D4B9A620D4CE7
S2144007A0A0470028FCD010200B4B98470B4B98478F
S2144007B00148024B984710BD000E2707250E400003
S2144007C0A10A4000F50A4000050B4000013F1320F7
S2144007D000040E40150B40003D0A4000150D400039
S2144007E0C0F8841053004FF40042B2FBF3F2013AD3
S2144007F0C2F30D02C0F88C2070474264B1F1C05F6E
S21440080039D013D8B1F1006F25D0B1F1805F0AD14D
S214400810036F13430367436F416F0B4023EA0203A2
S2144008204367426070470029FBD17047B1F1205FB3
S21440083020D009D8B1F1005FF3D1036F13430367AB
S214400840436F13434367ECE7B1F1405F12D0B1F119
S214400850605F0FD0E5E710B4016F046FD3432140CB
S2144008601C4619400167436F416F0B402340436766
S214400870426010BC7047036F016F0B4023EA0203CF
S2144008800367436F13434367CBE7416412F0010F9E
S21440089014BF4166016612F00A0F14BF016241623E
S2144008A012F0020F07D112F0080F18BFC0F88410DC
S2144008B0416101607047C0F88010F9E710B4019CB0
S2144008C0416444B9016643B1016542B9416301617F
S2144008D0016010BC70474166F5E74165F5E7016386
S2144008E0F5E712F0100F10D0C0F8B01012F0200F3D
S2144008F014BFC0F8D410C0F8D01012F0400F14BF88
S214400900C0F8C010C0F8C4107047C0F8B4107047A4
S21440091001647047C06C7047806C704770B582B099
S2144009200D46430903F5001303F207735C0201F01A
S214400930F043B3F1005F53D00AD8B3F1805F2DD0B7
S214400940B3F1C05F3BD0B3F1006F15D0002023E079
S214400950B3F1405F55D0B3F1605F52D0B3F1205F42
S214400960F4D100F01F0101262A4606FA01F120467E
S2144009702F4B984730460FE000F01F000126864078
S21440098032464FF0006120462A4B984715F0010F3B
S21440099014BF66662666012002B070BD00F01F00D8
S2144009A00126864032464FF080512046214B9847DC
S2144009B015F0010F14BF666626660120ECE700F0CE
S2144009C01F000126864032464FF0C0512046194B44
S2144009D0984715F0010F14BF666626660120DBE7D0
S2144009E000F01F000126864032464FF00051204658
S2144009F0104B984715F0010F14BF66662666012017
S214400A00CAE705F0605200F01F01012605EA06031A
S214400A100093C5F38003B2F1605F14BF0022012249
S214400A2006FA01F12046044CA0473046B4E700BF22
S214400A308B084000FB074000BD084000174A136B78
S214400A4023F0700318431063936E13F0080F0AD117
S214400A504FF4006311498A6E12F0080F03D1013B30
S214400A60F9D1012070470D4A136B23F0030343F07E
S214400A7002031363936E13F0080F0AD14FF400631A
S214400A8006498A6E12F0080F05D1013BF9D10120C4
S214400A907047002070470020704700BF00040E409B
S214400AA0C8B9114A136A090289B223F45C1323F0C9
S214400AB0030343F45C1343F001030B431362936E4A
S214400AC013F0010FFBD0084A136A43F09B7343F4BC
S214400AD080331362704704490B6A044A1A40044B39
S214400AE013430B62704700BF00040E40FCFFC8FE75
S214400AF002003701024B986E00F48030704700BF0A
S214400B0000040E404FF00052014B9A62704700BFFF
S214400B1000040E40024B986E00F00200704700BF83
S214400B2000040E4022281ED81F280CD8114B9A6964
S214400B3001238340934318D0012303FA00F00D4B62
S214400B4018610020704720380A4BD3F8082101234B
S214400B50834093430BD0012303FA00F0054BC3F8C0
S214400B600001002070470120704700207047002099
S214400B70704700BF00040E4010B489014318022499
S214400B8044504FF0FF319962196A5A6010BC704762
S214400B90890105234350704700EB8111CA617047B5
S214400BA000EB81114A62704700EB8111086A70477A
S214400BB0F0B486B0022401940824029420240394BE
S214400BC0802404940A9CE40B0594B0EB510F14D88F
S214400BD04C0CA04217D2012501AF57F82540B1FB77
S214400BE0F4F4260C84420AD386420DD90135052DED
S214400BF0F3D1002006B0F0BC70470020FAE7002092
S214400C00F8E70120F6E700252AB106A901EB8501A1
S214400C1051F8141C1160002BF3D01D600120E9E749
S214400C2010B50B200D4CA0470C20A0470C4B0222C1
S214400C301A61C3F8A0205A63A3F500734FF400620C
S214400C405A61C3F8A02001225A61C3F8A0204FF48D
S214400C5080525A61C3F8A02010BD00BF250B40004B
S214400C6000100E40FEE7000008B5214B214A9A428C
S214400C7028D9214B1E4A9A420CD2013B9B1A23F09C
S214400C800303043313441B4951F8040B42F8040B86
S214400C909A42F9D100BF194B194A9A420AD2013BEF
S214400CA09B1A23F0030304331344002142F8041B29
S214400CB09A42FBD1134B144A9A60144B9847144BF4
S214400CC09847FEE70A4B0B4A9A42E3D20A4B08483B
S214400CD0181A1146043A02440028DBD0C1F1040138
S214400CE052F8040943F8040DCA42F9D1D2E700BFCE
S214400CF0000000202C1840003C0400200C09002076
S214400D003C04002000ED00E000004000690F400079
S214400D10990E40003C4B1B6B03F00303032B0ED88D
S214400D20DFE803F0021C3838384B5B6913F0800F5D
S214400D3014BF4FF400424FF4FA42354B1A60324B20
S214400D401B6B03F07003702B55D02F4B1A6B30493A
S214400D50C2F302120B68D3400B6070472A4B1B6AE3
S214400D6013F0807F03D02B4A294B1A60E7E72A4AC4
S214400D70274B1A60244B1B6A03F07003102B05D0D8
S214400D80202BDCD1234A224B1A60D8E7234A204B3B
S214400D901A60D4E71C4B1B6A13F0807F18D01D4A9C
S214400DA01B4B1A60184B1B6B03F00303022B164AAF
S214400DB007BF916A926AD16AD26A1548C1F30A415E
S214400DC0036801FB0333D2B2B3FBF2F30360B6E72A
S214400DD0114A0F4B1A600C4B1B6A03F07003102B22
S214400DE005D0202BDED10B4A094B1A60DAE70B4AB6
S214400DF0074B1A60D6E7064A13680949A1FB031356
S214400E005B081360704700BF00040E4010140E408D
S214400E100C000020001BB70000093D0000127A00BD
S214400E20ABAAAAAA124B984211D9124B984213D990
S214400E30114B984214D9114B984215D9104B9842F1
S214400E4094BF4FF004220F4A0F4B1A6070474FF082
S214400E5080620D4B1A6070470C4A0B4B1A60704705
S214400E600B4A094B1A6070470A4A074B1A6070478C
S214400E70FF2C3101FF596202FF869303FFB3C4047F
S214400E80FFE0F50500050004000A0E4000010004DE
S214400E90000200040003000408B51E4B98471E4895
S214400EA01E4B98471E4B98471E4B984700211E489E
S214400EB01E4B98471E4B98471E4B98471E4B9847CD
S214400EC01E4B98471E4C1F4D1F4E10E003211F48D7
S214400ED01F4B9847002323701E4B984707E0304629
S214400EE01D4B984703E0154B98471A4B9847237875
S214400EF0002BEBD1EB6B13F4006FF4D003211748B3
S214400F00134B9847164B1B68062BE8D0154B984753
S214400F10EDE700BF7D07400050140E409D034000A3
S214400F20210C4000CD03400000000140910B4000E2
S214400F3049054000FD0540005906400011074000A5
S214400F40EC040020000E0E4025CA8200E417400044
S214400F50B10640003907400001000020F01740006D
S214400F60E0040020ED06400070B50F4E0F4D761B96
S214400F70B61018BF002405D0013455F8043B9847F6
S214400F80A642F9D10A4E0B4D761B00F03DFCB6103A
S214400F9018BF002406D0013455F8043B9847A642B3
S214400FA0F9D170BD70BD00BF141840001418400041
S214400FB01C184000141840002DE9F0414FF0010E77
S214400FC0744600254FF0FF362B198B4200EB060780
S214400FD00DD23F5D10F803C0BC452DD21D460124FE
S214400FE0A3EB060E2B198B4200EB0607F1D34FF00E
S214400FF00108C2F800E0444600254FF0FF372B19A1
S214401000994200EB070E0ED91EF804E010F803C014
S214401010F44518D91D460124A3EB07082B1999421D
S21440102000EB070EF0D80137701C874224BFC2F889
S21440103000803846BDE8F0810CD04FF0010E2E46B9
S21440104074467544C0E70BD04FF001082F4644461F
S2144010504544D4E7744512BF01341D460124B3E726
S214401060444512BF01341D460124C8E72DE9F04F20
S214401070ADF2144D164605468B461046194603AA51
S2144010801C46FFF799FF03AB81460DF20C4243F82E
S214401090044F9342FBD14CB1631E721E04A812F853
S2144010A0011F40F8213013F1FF33F8D203994A4626
S2144010B03144304600F064FA00286FD109F1FF331E
S2144010C00093F3188246019323468046544658467A
S2144010D09A4608EB0A073A1A0021284400F000FA1C
S2144010E0002856D1002F54D0EB1904AA13F8013C1F
S2144010F052F823304BB124B1039A934201D2AAEB63
S2144011000203984400243846E3E74C4523460AF158
S214401110FF3E38BF4B46734513D208EB030216F822
S21440112003C0A85C84452A4406EB030106D02CE0A5
S21440113011F801CF12F8010F844526D101337345CB
S214401140F6D34C45009980F08980009B08EB03025B
S214401150019BA85C1B7898422A447FD1019804F1F1
S214401160FF3B06E010F801CD12F801EDF44503D13F
S21440117019464B1E9B45F5D101348C4270D8039CD2
S2144011803846A044AAEB0404A3E7C9F10102904400
S214401190B7E700200DF2144DBDE8F08FA4EB09032D
S2144011A04B4538BF4B46013309F1FF38039306EBF6
S2144011B0080358464FF0000ACB4699460AEB040708
S2144011C03A1A0021284400F08BF90028E1D1002F7C
S2144011D0DFD0EB1904AA13F8013C52F82330A3BB26
S2144011E0611E8B4515D20AEB0B0216F80B3015F82C
S2144011F002E09E452A4406EB0B005B4606D027E0FD
S21440120010F801CF12F801EFF44521D101338B429B
S214401210F6D3B8F1FF3F11D00AEB080299F8001058
S214401220AB5C99422A440FD14B4605E013F8010DBA
S21440123012F8011D884207D1B342F7D105EB0A00E8
S2144012400DF2144DBDE8F08F039B9A443846B5E73F
S214401250CBF1010292449A443846AFE749468BE7C1
S21440126005EB080096E700BF0278002A00F00181EF
S2144012702DE9F04F91F8008085B04446B8F1000F54
S21440128016D0864601F1010C012703E013F8014B06
S2144012906CB19C46A24214BF002707F001071EF817
S2144012A0012F6346002AF1D19CF80030FBB917B1F4
S2144012B005B0BDE8F08F0E46054641460130ACEB22
S2144012C0060400F08DF9074688B1012CF0D02819A5
S2144012D0874294BFC11B01211F2C8B460BD9234646
S2144012E032463846FFF7C2FE05B0BDE8F08F002014
S2144012F005B0BDE8F08F03AA21463046FFF75CFEF6
S2144013000399804602463144304600F039F90028B9
S21440131057D108F1FF330093F318814605460193F1
S2144013205846B2466619321A0021384400F0D8F8BA
S2144013300028DCD1002EDAD0C845434638BF4B469D
S2144013409C4212D95A191AF80310B85C81423A44A2
S2144013500AEB030E06D02CE01EF8010F12F8011F10
S214401360884226D101339C42F6D1C845009940F2C6
S2144013708380009BEA18019BB85C1B7898423A44ED
S2144013807AD1019809F1FF3B06E010F801CD12F83A
S21440139001EDF44503D119464B1E5B45F5D109F1E5
S2144013A00109894557D8039B30461D44A4EB0309E1
S2144013B0B8E7C8F1010215441D444FF00009304615
S2144013C0B0E7A4EB0803434538BF4346013308F172
S2144013D0FF39039306EB090358460025BB469A4659
S2144013E067193A1A0021584400F07AF800287FF42A
S2144013F07EAF002F3FF47BAF444515D908EB05027E
S21440140016F808301BF8020098425A4406EB0801CA
S214401410434606D023E011F801EF12F8010F864547
S2144014201DD101339C42F6D1B9F1FF3F12D005EBF6
S21440143009029AF800301BF8021099425A4414D117
S214401440534605E013F8010D12F8011D88420CD1F1
S214401450B342F7D15F46781905B0BDE8F08FC8F1C2
S214401460010215441D443846BAE7039B38461D44DE
S214401470B6E70B7813B97047414690E700207047AF
S214401480024B13B1024800F005B870470000000058
S214401490A1144000002301461A46184600F014B92D
S2144014A038B50A4C0A4D641BA4100AD004F1804398
S2144014B0013B05EB8305013C55F804399847002C61
S2144014C0F9D1BDE8384000F0A9B900BF2C1840005B
S2144014D028184000704700BF704700BF000000005B
S2144014E001F0FF01102A2BDB10F0070F08D010F890
S2144014F0013B013A8B422DD010F0070F42B3F6D194
S214401500F0B441EA012141EA014122F007047FF0AC
S21440151000070023F0E80256083C85EA010586EA03
S214401520010685FA47F5A3FA87F586FA47F6A5FA3F
S21440153087F68EB9EED1F0BC01F0FF0102F007024B
S21440154032B110F8013B013A83EA010313B1F8D1F6
S2144015500020704701387047002D06BF35460338D7
S214401560073815F0010F07D1013015F4807F02BF10
S214401570013015F4C03F0130F0BC0138704700BF61
S214401580032A70B422D940EA01039B0711D003789E
S2144015900C78A3421DD10A44013105E010F8013F02
S2144015A011F8014BA34214D19142F7D1002070BCF0
S2144015B070470D680668AE420C46034601F10401CA
S2144015C000F1040008D1043A032AF2D8002ADED1FA
S2144015D0ECE7181B70BC704721461846D7E700BF9B
S2144015E0C9B2002941D08207F0B467D00378002BF7
S2144015F068D0994237D0431C04E013F8010B90B3EF
S21440160081422FD09A071C46F7D1256841EA01232C
S21440161043EA034383EA0506A6F10130A5F1013209
S21440162020EA060022EA0502024312F0803F11D16A
S214401630204650F8046F83EA0607A7F10135A6F165
S214401640013225EA070522EA06022A4312F0803FC5
S214401650EFD00446207818B905E014F8010F10B111
S2144016608142FAD12046F0BC7047830724D00378E5
S214401670002BF9D0431C03E002780133002AF3D054
S21440168099071846F8D11968A1F1013222EA0102F9
S21440169012F0803F08D153F8041FA1F1013222EA2C
S2144016A0010212F0803FF6D01A78184642B110F880
S2144016B0013F002BFBD170470346E4E70446A4E70E
S2144016C0184670471846CEE72DE9F8432C4D064697
S2144016D0286898460F469146FFF7FCFE294B1C6843
S2144016E0D4F84831002B3ED05A681F2A1CDC02F141
S2144016F0010E76B103EB82010124C1F88890D3F83D
S214401700880194402043022EC3F88801C1F808811E
S21440171023D00232C3F804E0286843F82270FFF76B
S214401720DBFE0020BDE8F883174B0BB34FF4C870C0
S214401730AFF300800346D8B1D4F8482102600021B8
S21440174041600A46C4F848014FF0010EC0F88811BF
S214401750C0F88C11002EDCD0CCE7D3F88C110C43AB
S214401760C3F88C41D5E704F5A673C4F84831BBE707
S2144017702868FFF7B1FE4FF0FF30BDE8F88300BFA2
S21440178038040020041840000000000000C2010099
S214401790C00000000008000000000000000000003C
S2144017A0000000005374617274207472616E736638
S2144017B065720000436C69656E74206E6F742063BA
S2144017C06F6E6E656374656400000000436F6D6DF8
S2144017D0616E64206661696C656400004E6F6E657C
S2144017E0000000007365747570207765620D0A000E
S2144017F073747265616D5F706F6C6C20616C6C0D9C
S2144018000A00000010000020F8B500BFF8BC08BC75
S2144018109E46704781144000F1004000F8B500BF76
S210401820F8BC08BC9E467047CD00400057
S21440182CBFF35F8F0138FBD17047000000093D00C5
S21440183C00000000FC02002064030020CC030020C3
S21440184C0000000000000000000000000000000047
S21440185C0000000000000000000000000000000037
S21440186C0000000000000000000000000000000027
S21440187C0000000000000000000000000000000017
S21440188C0000000000000000000000000000000007
S21440189C00000000000000000000000000000000F7
S2144018AC00000000000000000000000000000000E7
S2144018BC00000000000000000000000000000000D7
S2144018CC00000000000000000000000000000000C7
S2144018DC00000000000000000100000000000000B6
S2144018EC0E33CDAB34126DE6ECDE05000B0000007B
S2144018FC0000000000000000000000000000000097
S21440190C0000000000000000000000000000000086
S21440191C0000000000000000000000000000000076
S21440192C0000000000000000000000000000000066
S210401C5C0000000000000000E808002027
S804400C6946
