S01B00004E6574776F726B656450726F6772616D6D65722E737265633A
S214400000D8BF0120AD1B4000751C4000751C400049
S214400010751C4000751C4000751C40000000000028
S214400020000000000000000000000000751C4000BA
S214400030751C400000000000751C4000751C400008
S214400040751C4000751C4000751C4000751C400027
S214400050751C4000751C4000751C400000000000E8
S214400060751C4000751C400000000000AD024000BA
S214400070C5024000000000009D094000751C40007D
S2144000800000000000000000751C4000751C400089
S214400090751C4000751C4000751C4000E106400081
S2144000A0751C4000751C4000000000000000000069
S2144000B000000000751C4000751C4000751C400088
S2144000C0751C4000751C4000751C400010B5054C62
S2144000D0237833B9044B13B10448AFF300800123AF
S2144000E0237010BD3C040020000000009C2E400001
S2144000F00C4B43B10C480D4910B5AFF300800C488B
S214400100036823B910BD0A48036833B97047094BE2
S214400110002BF7D0BDE810401847064B002BF5D013
S214400120184700BF000000009C2E400040040020FE
S2144001309C2E40000000000080B584B000AF786080
S214400140396078682C4B9847F86078682B4B98470E
S2144001500246FB681340FB60FB68002B3CD0002344
S214400160BB6034E0264ABB681B0113441A683B68F0
S2144001709A4226D1224ABB681B01134404331A68AC
S214400180FB681340002B1CD01D4ABB681B01134460
S2144001900C331B681A49BA6812010A441068184999
S2144001A0BA6812010A440432126811469847144A43
S2144001B0BB681B01134404331B68DB43FA681340D7
S2144001C0FB60BB680133BB60BB68062B03D8FB688B
S2144001D0002BC7D100E000BF0A4B1B68002B07D09E
S2144001E0094B1B68002B03D0074B1B687868984761
S2144001F000BF1037BD4680BD131440002914400090
S21440020058040020B08F0120CC04002080B586B072
S21440021000AFF860B9607A603B60214B1B68062BE4
S21440022001D9012338E00023FB7511E0FB7D1B015B
S2144002301C4A13443B613B691A68BB689A4204D126
S2144002403B695A687B689A4208D0FB7D0133FB7550
S214400250FA7D134B1B689A42E8D900E000BF3B6921
S214400260BA681A603B697A685A603B693A689A602D
S2144002703B693A6ADA60FA7D094B1B6801339A4259
S21440028004D1074B1B680133054A13603A68796806
S214400290F868054B9847002318461837BD4680BD7A
S2144002A0C8040020580400207513400080B500AFF5
S2144002B00B210248024B984700BF80BD000E0E40FF
S2144002C03901400080B500AF0C210248024B9847E8
S2144002D000BF80BD00100E403901400080B489B098
S2144002E000AFF860B9607A60BB681A017B689A42D2
S2144002F002D81023FB6101E00823FB617B68DA002B
S214400300FB69B96801FB03F35B081A44FB69B968EB
S21440031001FB03F3B2FBF3F3BB61BB69DB087B6114
S214400320BB6903F007033B617B69002B03D07B6905
S214400330B3F5803F01D301230FE0FB69082B05D1BD
S214400340FB685B6843F40022FB685A603B691A040A
S2144003507B691A43FB681A62002318462437BD4659
S21440036080BC704780B582B000AF786078680F4B2D
S21440037098477B6800225A607B6800225A627B68F6
S21440038000229A6278680A4B98477868094B9847E3
S2144003907868094B98477868084B98477868084BC0
S2144003A0984700BF0837BD4680BD00BFB505400032
S2144003B0A1044000D10440003305400067054000DA
S2144003C04D05400080B584B000AFF860B9607A60F3
S2144003D0F8681A4B98471A4B00221A60BB68002BE5
S2144003E009D0BB681B687A681946F868154B984769
S2144003F00346002B01D001231BE0BB685A68BB684C
S2144004009B681A43BB681B691A43BB68DB681A4380
S2144004100B4B1B6813430A4A1360094B1B68084A78
S2144004201360FB685A68064B1B681A43FB685A60A1
S214400430002318461037BD4680BD00BF6503400008
S214400440D0040020DD02400080B584B000AFF860E4
S214400450B9607A607A68B968F8680A4B9847034684
S214400460002B01D0012308E0FB685B6823F00F03F4
S21440047043F00202FB685A60002318461037BD4618
S21440048080BD00BFC503400080B483B000AF786035
S2144004907B6840221A6000BF0C37BD4680BC704760
S2144004A080B483B000AF78607B6888221A6000BF53
S2144004B00C37BD4680BC704780B483B000AF7860D0
S2144004C07B6810221A6000BF0C37BD4680BC704760
S2144004D080B483B000AF78607B6824221A6000BF87
S2144004E00C37BD4680BC704780B483B000AF7860A0
S2144004F039607B683A689A6000BF0C37BD4680BC5E
S214400500704780B483B000AF786039607B683A68E3
S214400510DA6000BF0C37BD4680BC704780B483B0FD
S21440052000AF78607B685B6918460C37BD4680BC78
S214400530704780B483B000AF78607B684FF48072B9
S2144005401A6000BF0C37BD4680BC704780B483B08D
S21440055000AF78607B684FF400321A6000BF0C37FB
S214400560BD4680BC704780B483B000AF78607B687F
S2144005704FF400221A6000BF0C37BD4680BC70475F
S21440058080B483B000AF786039607B685B6903F005
S2144005900103002B01D1012306E07B689B69C3F36E
S2144005A008023B681A60002318460C37BD4680BCDC
S2144005B07047000080B483B000AF78607B68044A20
S2144005C0C3F8E42000BF0C37BD4680BC704700BF70
S2144005D00041535580B483B000AF78607B684FF4D9
S2144005E000425A6000BF0C37BD4680BC704780B49E
S2144005F083B000AF00237B6000233B607B68012B09
S214400600FCD100BF0C37BD4680BC704780B483B079
S21440061000AF0346FB71084997F907305B09FA7942
S21440062002F01F02012000FA02F241F8232000BF28
S2144006300C37BD4680BC704700E100E080B483B014
S21440064000AF78607B68072B25D801A252F823F0CC
S21440065071064000770640007D0640008306400055
S214400660870640008B0640008F06400093064000F9
S2144006704FF4FA4310E04FF400430DE04FF40043CC
S2144006800AE0084B08E0084B06E0084B04E0074B3E
S21440069002E0064B00E0002318460C37BD4680BCFF
S2144006A0704700BF00093D0000127A00001BB700EB
S2144006B080B500AF0620044B9847024613469B0081
S2144006C013449B00184680BD3D06400080B500AFF1
S2144006D0024B984703465B08184680BDB10640006B
S2144006E080B582B000AF002109480A4B9847786031
S2144006F07B6803F01003002B06D0074B1B78DBB259
S2144007000133DAB2044B1A7000BF0837BD4680BDCD
S2144007100000014083194000E004002090B587B0F7
S21440072002AF184B9847F8601720174B9847391D6B
S21440073007F10802FB6800930B46F9680120134C4A
S214400740A0477B6843F480431A4600211048114B6B
S2144007509847BB68FA68B2FBF3F31A4600210C4888
S2144007600D4B984717200D4B9847102200210848FC
S2144007700B4B9847002106480A4B984700BF143752
S214400780BD4690BDCD06400061184000A51940000A
S21440079000000140E1184000391940000D064000B5
S2144007A05D1940001919400080B483B000AF03467D
S2144007B0FB71084997F907305B09FA7902F01F0286
S2144007C0012000FA02F241F8232000BF0C37BD4654
S2144007D080BC704700E100E080B483B000AF786032
S2144007E07B68072B25D801A252F823F00D0840005D
S2144007F013084000190840001F0840002308400026
S214400800270840002B0840002F0840004FF4FA43CA
S21440081010E04FF400430DE04FF400430AE0084B6D
S21440082008E0084B06E0084B04E0074B02E0064BA6
S21440083000E0002318460C37BD4680BC704700BF1A
S21440084000093D0000127A00001BB70080B500AFDB
S2144008500620044B9847024613469B0013449B00D1
S214400860184680BDD907400080B500AF024B984778
S21440087003465B08184680BD4D08400080B500AF73
S214400880024B984703465B08184680BD4D0840001B
S21440089080B582B000AF78607868034B984700BF59
S2144008A00837BD4680BD00BF6118400080B48DB09B
S2144008B000AF78600B46FB707B68FB62FB7887F87E
S2144008C02B30FB6A7B627B6A3B623B6A5B09FB615F
S2144008D0FB6903F5001303F207735B02BB6197F8ED
S2144008E02B30012B09D1FB6A7B617B6903F01F0328
S2144008F001229A40BB691A610CE097F82B30002B16
S21440090008D1FB6A3B613B6903F01F0301229A4012
S214400910BB695A61FB6AFB60FB6803F01F03012258
S2144009209A40BB69C3F8A02000BF3437BD4680BCA0
S214400930704780B48BB000AF78600B46FB707B6826
S2144009407B62FB7887F823307B6AFB61FB69BB617F
S214400950BB695B097B617B6903F5001303F2077390
S2144009605B023B6197F82330002B09D07B6AFB6023
S214400970FB6803F01F0301229A403B691A6308E0B4
S2144009807B6ABB60BB6803F01F0301229A403B6949
S2144009905A6300BF2C37BD4680BC704780B582B0D6
S2144009A000AF0D480D4B984778607B6803F4805342
S2144009B0002B0CD00A4908480A4B98470A4B01229C
S2144009C01A70074B1B68DBB21846084B984700BFA7
S2144009D00837BD4680BD00BF004002401D054000B0
S2144009E0D404002081054000D8040020F1094000CE
S2144009F080B483B000AF0346FB71074B1B680749C2
S214400A00FA79CA54044B1B680133034A136000BF8B
S214400A100C37BD4680BC7047DC040020C48B0120E8
S214400A2080B584B000AF786039600C4B98470C4B6B
S214400A3000221A600023FB6007E00A4AFB68134462
S214400A4000221A70FB680133FB60FB68B3F57A7FBF
S214400A50F3D300BF1037BD4680BD00BF690A4000D3
S214400A60DC040020C48B012080B500AF1A491B4827
S214400A701B4B98471B4918481B4B98470346002B6F
S214400A8003D01A4B02221A6024E019491248164B2A
S214400A9098470346002B03D0144B04221A6019E0F3
S214400AA014490D48104B98470346002B03D00F4B74
S214400AB005221A600EE0104907480B4B984703463C
S214400AC0002B03D0094B06221A6003E0074B4FF475
S214400AD07A621A6000BF80BDC48B0120EC040020FF
S214400AE035244000CC2C4000A1274000E4040020E0
S214400AF0DC2C4000F42C4000042D400080B483B031
S214400B0000AF78603960044B01221A7000BF0C3782
S214400B10BD4680BC704700BFE1040020B0B586B03B
S214400B2000AF224B3C461D460FCD0FC495E8030050
S214400B3084E803001E4B984702461E4B1A600E2060
S214400B401D4B98471B4B1A683B4619461B481C4B87
S214400B5098474FF0FF3119481A4B984717481A4B99
S214400B6098471648194B984701211448184B984700
S214400B700E20184B98474FF000610520164B9847BB
S214400B804FF000610620144B984701210820134B74
S214400B90984700210820124B98474FF000610720E5
S214400BA00D4B984700BF1837BD46B0BD0C2D4000D2
S214400BB07D084000E80400209108400000400240C4
S214400BC0490440000305400089044000B904400041
S214400BD0E9044000A907400041144000AD08400029
S214400BE03309400090B583B002AF0B200E4B9847B8
S214400BF00A224FF480510D480D4B98470D4B0093F9
S214400C0071234FF480520B2108480B4CA0470B2011
S214400C100A4B98474FF480510448094B984700BF09
S214400C200437BD4690BD00BF61184000000E0E4020
S214400C304B114000210A40000D024000A907400029
S214400C40DF13400090B583B002AF0B200C4B9847A3
S214400C500A2201210B480C4B98470C4B0093492322
S214400C6001220B2107480A4CA0470B20094B984706
S214400C7001210448084B984700BF0437BD4690BD45
S214400C8061184000000E0E404B114000FD0A400027
S214400C900D024000A9074000DF1340002DE9F04F49
S214400CA087B000AF00212120434B9847434B9847DD
S214400CB0034619464FF000020B461446660146EAC4
S214400CC0D3665D012B4634465B1A64EB0204A000F3
S214400CD07861786940EA937078619B003B61D7E918
S214400CE004345B1844EB0204E200FA60FA6842EA15
S214400CF05372FA60DB00BB60D7E9023419462246DD
S214400D0043F2AF634FF00004CD1842EB040628468A
S214400D1031462B4C43F2B0624FF00003A0470346E7
S214400D200C461846274B984701212120224B9847CE
S214400D30224B9847034619464FF000020B4614468E
S214400D4060017860786840EAD36078605B013B6019
S214400D50D7E900345B1A64EB02044FEA840B4BEA93
S214400D60937B4FEA830A53465C465B1844EB020487
S214400D704FEA041949EA13794FEA031843464C46AA
S214400D801946224643F2AF634FF00004CD1842EBBB
S214400D900406284631460A4C43F2B0624FF0000340
S214400DA0A04703460C461846064B984700BF1C37DC
S214400DB0BD46BDE8F08F00BF3309400069084000DB
S214400DC0D52040000100002080B582B000AF78609A
S214400DD07B68072B31D801A252F823F0390E400029
S214400DE0FD0D4000050E40000D0E4000150E400063
S214400DF01D0E4000250E40002F0E40000020114BD7
S214400E0098471AE001200F4B984716E000200E4BFB
S214400E10984712E010200C4B98470EE020200A4BD3
S214400E2098470AE03E210020084B984705E03E21BF
S214400E300120064B984700E000BF00BF0837BD467C
S214400E4080BD00BF95164000011740007117400056
S214400E5080B582B000AF78607B68072B26D801A2A9
S214400E6052F823F0850E4000890E4000890E40005F
S214400E709B0E40009B0E40009B0E40009B0E400089
S214400E809B0E4000012312E00B4B98470346002B75
S214400E9014BF01230023DBB209E0084B9847034602
S214400EA0002B14BF01230023DBB200E000231846CA
S214400EB00837BD4680BD00BFCD164000E91740004C
S214400EC080B483B000AF78607B68072B25D801A23A
S214400ED052F823F0F50E4000FB0E4000010F400094
S214400EE0070F40000B0F40000F0F4000130F40004D
S214400EF0170F40004FF4FA4310E04FF400430DE064
S214400F004FF400430AE0084B08E0084B06E0084B65
S214400F1004E0074B02E0064B00E0002318460C377F
S214400F20BD4680BC704700BF00093D0000127A00F5
S214400F30001BB70080B582B000AF0346FB7100BF10
S214400F40FB791846054B9847034683F00103DBB20E
S214400F50002BF5D100BF0837BD4680BD510E40007E
S214400F6080B586B000AFF8607A603B600B46FB7297
S214400F70FB7A18460D4B984702467B68B2FBF3F364
S214400F807B617B693A6802FB03F37B613B68013B0C
S214400F901A04074B13407A68D2B2134343F47C5288
S214400FA0FB681A6000BF1837BD4680BDC10E4000C2
S214400FB00000FF0780B582B000AF786039603B68BC
S214400FC0002B08D1094B9847094A7B681B6843F0B9
S214400FD00053936205E0074B9847054A7B681B68B9
S214400FE0D36200BF0837BD4680BD00BF0118400031
S214400FF000040E403118400080B582B000AF7860E3
S2144010007B68002B03D1054B9847034602E0044B10
S2144010109847034618460837BD4680BD1918400015
S2144010204918400080B582B000AF0346FB71FB799B
S214401030033B042B08D8FB791846064B9847FB79A8
S2144010401846054B984700E000BF00BF0837BD462E
S21440105080BD00BFC90D4000350F400080B582B04E
S21440106000AF786000BF7868044B98470346002B73
S214401070F9D0002318460837BD4680BDF90F40001A
S21440108080B500AF0620044B9847024613469B00A7
S21440109013449B00184680BDC10E400080B500AF8B
S2144010A0024B984703465B08184680BD81104000B7
S2144010B090B583B000AF1148114B98470620114BAE
S2144010C09847381D1423012206210F4CA0473B1D8C
S2144010D0002118460D4B984700200D4B984710208E
S2144010E00C4B98470C4B98470C4B98470346184672
S2144010F0034B984700BF0C37BD4690BD000E2707F0
S214401100151E400025104000610F4000B50F4000FE
S2144011105D104000151640007D1C40009D104000AC
S21440112080B485B000AFF860B9607A607B68002B09
S21440113003D0FB68BA685A6602E0FB68BA681A666B
S21440114000BF1437BD4680BC704780B485B000AF42
S214401150F860B9607A60FB68BA68C3F884207B6838
S2144011605B004FF40042B2FBF3F3013BC3F30D02C6
S214401170FB68C3F88C2000BF1437BD4680BC704760
S21440118080B487B000AFF860B9607A60FB687A6870
S2144011905A64BB68B3F1C05F4AD0B3F1C05F08D8A9
S2144011A0B3F1006F16D0B3F1805F2CD0002B69D01E
S2144011B064E0B3F1205F65D0B3F1205F03D8B3F1AC
S2144011C0005F4AD05AE0B3F1405F5BD0B3F1605F56
S2144011D058D053E0FB681B6F7B61FB681A6F7B68D7
S2144011E0D9437B690B401A40FB681A67FB685B6F04
S2144011F07B61FB685A6F7B68D9437B690B401A401A
S214401200FB685A673AE0FB681B6F7B617A687B69CC
S2144012101A43FB681A67FB685B6F7B61FB685A6F13
S2144012207B68D9437B690B401A40FB685A6725E0C8
S214401230FB681B6F7B61FB681A6F7B68D9437B69D1
S2144012400B401A40FB681A67FB685B6F7B617A68E5
S2144012507B691A43FB685A6710E0FB681B6F7B612B
S2144012607A687B691A43FB681A67FB685B6F7B6129
S2144012707A687B691A43FB685A6700BFFB687A68DE
S2144012805A6000E000BF1C37BD4680BC7047000077
S21440129080B584B000AFF860B9607A60B968F86825
S2144012A0194B98477B6803F001031A46B968F868FB
S2144012B0164B98477B6803F00A03002B03D0FB6865
S2144012C0BA681A6202E0FB68BA685A627B6803F042
S2144012D00203002B04D0FB68BA68C3F8802008E0FD
S2144012E07B6803F00803002B03D0FB68BA68C3F89A
S2144012F08420FB68BA685A61FB68BA681A6000BF07
S2144013001037BD4680BD00BFF91340002111400094
S21440131080B584B000AFF860B9607A603B60B96869
S214401320F868124B9847BA69B968F868104B9847FE
S2144013303B68002B03D0FB68BA681A6502E0FB687E
S214401340BA685A657B68002B03D0FB68BA681A6394
S21440135002E0FB68BA685A63FB68BA681A61FB68C1
S214401360BA681A6000BF1037BD4680BDF91340000A
S2144013702111400080B485B000AFF860B9607A6053
S2144013807B6803F01003002B20D0FB68BA68C3F8D4
S214401390B0207B6803F02003002B04D0FB68BA68BB
S2144013A0C3F8D42003E0FB68BA68C3F8D0207B6853
S2144013B003F04003002B04D0FB68BA68C3F8C02093
S2144013C008E0FB68BA68C3F8C42003E0FB68BA6864
S2144013D0C3F8B42000BF1437BD4680BC704780B405
S2144013E083B000AF786039607B683A681A6400BFA3
S2144013F00C37BD4680BC704780B483B000AF786081
S21440140039607B683A685A6400BF0C37BD4680BC7A
S214401410704780B483B000AF78607B68DB6C18465A
S2144014200C37BD4680BC704780B483B000AF786050
S2144014307B689B6C18460C37BD4680BC70470000E6
S21440144090B587B002AF786039607868634B98474C
S214401450F8603B6803F0F043B3F1005F67D0B3F148
S214401460005F09D8B3F1805F2BD0B3F1C05F43D0A3
S214401470B3F1006F0AD0A9E0B3F1405F7ED0B3F17C
S214401480605F7BD0B3F1205F6CD09FE07B6803F059
S2144014901F03012202FA03F31A464FF00061F86870
S2144014A04F4B98477B6803F01F03012202FA03F371
S2144014B019463B6803F001031A46F868494B9847BB
S2144014C086E07B6803F01F03012202FA03F31A4604
S2144014D04FF08051F868424B98477B6803F01F03F3
S2144014E0012202FA03F319463B6803F001031A4649
S2144014F0F8683C4B98476BE07B6803F01F0301227B
S21440150002FA03F31A464FF0C051F868344B984736
S2144015107B6803F01F03012202FA03F319463B6877
S21440152003F001031A46F8682E4B984750E07B6854
S21440153003F01F03012202FA03F31A464FF000514C
S214401540F868274B98477B6803F01F03012202FA8E
S21440155003F319463B6803F001031A46F868214B2B
S214401560984735E07B6803F01F03012202FA03F335
S2144015703A681946F8681C4B984729E07B6803F0A0
S2144015801F03012202FA03F319463B6803F0605337
S214401590B3F1605F0CBF01230023DBB21A463B6801
S2144015A003F00403002B14BF01230023DBB21846CC
S2144015B03B6803F00103002B14BF01230023DBB27A
S2144015C000930346F868094CA04701E0002300E07A
S2144015D0012318461437BD4690BD00BFF1154000A4
S2144015E0811140002111400091124000111340002B
S2144015F080B485B000AF78607B685B0903F5001364
S21440160003F207735B02FB60FB6818461437BD465F
S21440161080BC704780B485B000AF78601C491C4BD6
S2144016201B6B23F070027B6813430B634FF400631D
S214401630FB6007E0FB68002B01D1012323E0FB6839
S214401640013BFB60124B9B6E03F00803002BF1D06E
S2144016500F4A0F4B1B6B23F0030343F00203136345
S2144016604FF40063FB6007E0FB68002B01D10123C9
S21440167009E0FB68013BFB60054B9B6E03F00803EB
S214401680002BF1D0002318461437BD4680BC704767
S21440169000040E4080B483B000AF78607B68012BB6
S2144016A007D1084A074B9B6843F0254343F4801311
S2144016B09360044B044A1A6000BF0C37BD4680BC9A
S2144016C0704700BF10140E40080000A580B400AF5D
S2144016D0094B5B6903F08003002B07D0074B9B6EDA
S2144016E003F08003002B01D0012300E000231846BE
S2144016F0BD4680BC704700BF10140E4000040E402C
S21440170080B483B000AF7860184A184B1B6A43F425
S2144017105C1343F00803136200BF144B9B6E03F444
S2144017200033002BF9D01149104B1B6A23F45C138D
S21440173023F070037A68134343F45C130B6200BFD4
S2144017400A4B9B6E03F40033002BF9D0074A074B35
S2144017501B6A23F09B7323F4803343F45C131362B9
S21440176000BF0C37BD4680BC704700BF00040E402B
S21440177080B483B000AF786039607B68002B08D0B7
S2144017801649164B1B6A164A1A40164B13430B62F1
S2144017901EE01249114B1B6A23F45C1323F003032B
S2144017A03A68120292B2134343F45C1343F00103C7
S2144017B00B6200BF094B9B6E03F00103002BF9D070
S2144017C0064A064B1B6A43F09B7343F4803313620E
S2144017D000BF0C37BD4680BC704700BF00040E40BB
S2144017E0FCFFC8FE0200370180B400AF034B9B6E7F
S2144017F003F480331846BD4680BC704700040E4054
S21440180080B400AF034B4FF000529A6200BFBD4613
S21440181080BC704700040E4080B400AF034B9B6E04
S21440182003F002031846BD4680BC704700040E40D5
S21440183080B400AF034B0022DA6200BFBD4680BCD6
S214401840704700BF00040E4080B400AF034B9B6E51
S21440185003F004031846BD4680BC704700040E40A3
S21440186080B483B000AF78607B68222B01D9012317
S2144018702FE07B681F2B13D8184B9A6901217B6891
S21440188001FA03F31A4001217B6801FA03F39A42F6
S2144018901ED0124A01217B6801FA03F3136117E058
S2144018A07B68203B7B600D4BD3F8082101217B6889
S2144018B001FA03F31A4001217B6801FA03F39A42C6
S2144018C006D0064A01217B6801FA03F3C2F80031CC
S2144018D0002318460C37BD4680BC704700040E40B7
S2144018E080B487B000AFF860B9607A60FA68BB68C9
S2144018F09B0113447B617B6902221A607B694FF02F
S214401900FF329A627B691B6A7B697A685A6000BFBD
S2144019101C37BD4680BC704780B483B000AF78604B
S21440192039607A683B689B01134405221A6000BF01
S2144019300C37BD4680BC704780B485B000AFF860B9
S214401940B9607A60FA68BB689B0113441C337A68B6
S2144019501A6000BF1437BD4680BC704780B487B05D
S21440196000AFF860B9607A60FA68BB689B011344C0
S2144019707B617B697A685A6200BF1C37BD4680BC73
S214401980704780B485B000AF786039607A683B684D
S2144019909B011344FB60FB681B6A18461437BD4620
S2144019A080BC704780B48DB000AFF860B9607A6094
S2144019B03B6002233B6108237B612023BB6180237D
S2144019C0FB61BB6BDB0B3B620023FB621AE0FB6AEE
S2144019D09B0007F13002134453F8203CBA68B2FB30
S2144019E0F3F3BB62BB6A1B0C7B62FA68BB6A9A4223
S2144019F001D9002323E0FA687B6A9A4206D2FB6A42
S214401A000133FB62FB6A042BE1D900E000BFFB6AAE
S214401A10042B01D9002312E07B68002B08D0FB6A18
S214401A209B0007F13002134453F8202C7B681A6061
S214401A303B68002B02D03B68FA6A1A6001231846BE
S214401A403437BD4680BC704780B582B000AF786002
S214401A507868034B984700BF0837BD4680BD00BF37
S214401A606118400080B500AF0B20034B98470C2010
S214401A70014B984700BF80BD491A400080B48DB0E6
S214401A8000AF78600B46FB707B68FB62FB7887F89C
S214401A902B30FB6A7B627B6A3B623B6A5B09FB617D
S214401AA0FB6903F5001303F207735B02BB6197F80B
S214401AB02B30012B09D1FB6A7B617B6903F01F0346
S214401AC001229A40BB691A610CE097F82B30002B34
S214401AD008D1FB6A3B613B6903F01F0301229A4031
S214401AE0BB695A61FB6AFB60FB6803F01F03012277
S214401AF09A40BB69C3F8A02000BF3437BD4680BCBF
S214401B00704780B48BB000AF78600B46FB707B6844
S214401B107B62FB7887F823307B6AFB61FB69BB619D
S214401B20BB695B097B617B6903F5001303F20773AE
S214401B305B023B6197F82330002B09D07B6AFB6041
S214401B40FB6803F01F0301229A403B691A6308E0D2
S214401B507B6ABB60BB6803F01F0301229A403B6967
S214401B605A6300BF2C37BD4680BC704780B500AF77
S214401B700B4B9847012121200A4B984700212120F2
S214401B80094B984700210B20064B98470021002020
S214401B90044B984700210C20024B984700BF80BD5D
S214401BA0651A40007D1A4000031B400080B584B093
S214401BB000AF274BFB60274BBB60FA68BB689A4276
S214401BC00DD907E0BB681A1DBA60FA68111DF960A6
S214401BD012681A60BB68204A9342F3D320E0FA6842
S214401BE0BB689A421CD21C4A1A4BD31A7B60FA68CE
S214401BF07B681344043BFB60BA687B681344043B31
S214401C00BB600AE0BB681A1FBA60FA68111FF96029
S214401C1012681A607B68043B7B607B68002BF1D1BE
S214401C2000BF0E4BBB6004E0BB681A1DBA600022C2
S214401C301A60BB680A4A9342F6D30A4BFB600A4ACC
S214401C40FB689360094B9847094B9847FEE700BFEF
S214401C509C2E4000000000203C0400203C04002055
S214401C60D88F01200000400000ED00E0E523400052
S214401C704D1F400080B400AFFEE7000080B400AFC8
S214401C805D4B1B6B03F00303032B00F2968001A20F
S214401C9052F823F0A51C4000C51C40000F1D400014
S214401CA00F1D4000554B5B6903F08003002B04D0AA
S214401CB0534B4FF400421A6080E0514B4FF4FA42C7
S214401CC01A607BE04C4B1B6A03F08073002B03D0FA
S214401CD04B4B4C4A1A6071E0494B4B4A1A60464B94
S214401CE01B6A03F07003102B08D0202B0AD0002B61
S214401CF000D00BE0424B444A1A6007E0404B434A50
S214401D001A6003E03E4B3F4A1A6000BF56E03A4B2B
S214401D101B6A03F08073002B03D0394B394A1A6094
S214401D2019E0374B384A1A60334B1B6A03F070038E
S214401D30102B08D0202B0AD0002B00D00BE0304BC5
S214401D40314A1A6007E02E4B304A1A6003E02C4BAB
S214401D502C4A1A6000BF284B1B6B03F00303022B70
S214401D6015D1254B9B6A1B0CC3F30A030133244A47
S214401D70126802FB03F3224A13601F4B9B6ADBB2D6
S214401D801F4A1268B2FBF3F31D4A136016E01A4B63
S214401D90DB6A1B0CC3F30A030133194A126802FBC1
S214401DA003F3174A1360144BDB6ADBB2144A12681B
S214401DB0B2FBF3F3124A136000E000BF0E4B1B6BFE
S214401DC003F07003702B08D10D4B1B68104AA2FB22
S214401DD003235B080A4A13600AE0074B1B6B1B0988
S214401DE003F00703064A126822FA03F3044A136014
S214401DF000BFBD4680BC704700040E4010140E4025
S214401E000C000020001BB70000093D0000127A00BD
S214401E10ABAAAAAA80B483B000AF78607B68184AA1
S214401E20934204D8174B4FF080621A6023E07B68D9
S214401E30154A934203D8134B144A1A601BE07B683A
S214401E40134A934203D80F4B124A1A6013E07B683A
S214401E50114A934203D80B4B104A1A600BE07B683A
S214401E600F4A934204D8074B4FF004221A6002E010
S214401E70044B0C4A1A6000BF0C37BD4680BC704706
S214401E80FF2C3101000A0E40FF5962020001000497
S214401E90FF86930300020004FFB3C404000300045B
S214401EA0FFE0F5050005000480B483B000AF78601D
S214401EB07B68072B25D801A252F823F0DD1E400090
S214401EC0E31E4000E91E4000EF1E4000F31E4000A7
S214401ED0F71E4000FB1E4000FF1E40004FF4FA4332
S214401EE010E04FF400430DE04FF400430AE0084B87
S214401EF008E0084B06E0084B04E0074B02E0064BC0
S214401F0000E0002318460C37BD4680BC704700BF33
S214401F1000093D0000127A00001BB70080B500AFF4
S214401F200620044B9847024613469B0013449B00EA
S214401F30184680BDA91E400080B500AF024B9847AA
S214401F4003465B08184680BD1D1F40002DE9F04F34
S214401F5089B000AF504B98475048514B9847514B2B
S214401F609847514B984700215048514B9847514B02
S214401F709847514B9847514B9847514B9847514B30
S214401F809847034619464FF000020B461446660132
S214401F9046EAD3665D012B4634465B1A64EB020480
S214401FA04FEA840949EA93794FEA830843464C4608
S214401FB05B1844EB02044FEA841B4BEA936B4FEAF0
S214401FC0831A53465C461946224643F2AF634FF0A7
S214401FD00004CD1842EB0406284631463A4C43F2FC
S214401FE0B0624FF00003A04703460C461846374BF6
S214401FF09847374B9847334B9847034619464FF018
S21440200000020B461446A000F861F86940EA937057
S214402010F8619B00BB61D7E906345B1844EB0204C9
S214402020E0007861786940EA53707861DB003B6194
S214402030D7E904345B1A64EB02042001F860F868C0
S21440204040EA1370F8601B01BB60D7E902345B18A6
S21440205044EB0204E2007A607A6842EA53727A609D
S214402060DB003B60D7E900341946224643F2AF63B3
S2144020704FF00004CD1842EB040628463146124C79
S21440208043F2B0624FF00003A04703460C461846A2
S2144020900E4B9847ADE700BFB110400050140E40BD
S2144020A0D50540006D1B40001D0740000000014064
S2144020B0191940001D0B4000E50B4000450C400040
S2144020C09D0C4000391F4000D520400001000020F4
S2144020D0EF05400053B94AB9002908BF00281CBF85
S2144020E04FF0FF314FF0FF3000F07AB9ADF1080CF9
S2144020F06DE904CE00F006F8DDF804E0DDE90223E1
S21440210004B070472DE9F0478C460D460446089EBD
S214402110002B51D18A4217466DD9B2FA82FEBEF1E3
S214402120000F0BD0CEF1200C01FA0EF520FA0CFC75
S21440213002FA0EF74CEA050C00FA0EF44FEA174A7C
S214402140250CBCFBFAF81FFA87F90AFB18CC45EABF
S2144021500C4508FB09F3AB420AD9ED1908F1FF32EA
S21440216080F02381AB4240F22081A8F102083D4432
S214402170ED1AA4B2B5FBFAF00AFB105544EA054442
S21440218000FB09F9A14509D9E41900F1FF3380F0B5
S2144021900A81A14540F2078102383C44A4EB090479
S2144021A040EA08400021002E61D024FA0EF40023B5
S2144021B034607360BDE8F0878B4207D9002E54D058
S2144021C0002186E821000846BDE8F087B3FA83F18F
S2144021D0002940F08E80AB4202D3824200F2FA8061
S2144021E0841A65EB03050120AC46002E3FD086E8F6
S2144021F01010BDE8F08712B90127B7FBF2F7B7FA1F
S21440220087FEBEF1000F34D1EB1B3A0C1FFA87FC59
S2144022100121B3FBF2F8250C02FB183345EA0345CF
S2144022200CFB08F3AB4207D9ED1908F1FF3002D298
S214402230AB4200F2D1808046ED1AA3B2B5FBF2F075
S21440224002FB105543EA05440CFB00FCA44507D9A5
S214402250E41900F1FF3302D2A44500F2B8801846D4
S214402260A4EB0C0440EA08409DE731463046BDE802
S214402270F087CEF1200405FA0EF307FA0EF720FA9F
S21440228004F83A0C25FA04F448EA0308B4FBF2F1E1
S2144022904FEA184502FB11441FFA87FC45EA0445FD
S2144022A001FB0CF3AB4200FA0EF409D9ED1901F12B
S2144022B0FF3080F08A80AB4240F2878002393D444E
S2144022C0EB1A1FFA88F5B3FBF2F002FB103345EA2F
S2144022D0034500FB0CF3AB4207D9ED1900F1FF387C
S2144022E06FD2AB426DD902383D44EB1A40EA014109
S2144022F08FE7C1F1200722FA07F88B4005FA01F470
S21440230048EA030320FA07FE4FEA134CFD404EEA24
S214402310040EB5FBFCF94FEA1E440CFB19551FFA98
S21440232083F844EA054509FB08F4AC4202FA01F298
S21440233000FA01FA08D9ED1809F1FF3043D2AC4251
S21440234041D9A9F102091D442D1B1FFA8EFEB5FB8B
S214402350FCF00CFB10554EEA054400FB08F8A0457F
S21440236007D9E41800F1FF3529D2A04527D902380D
S2144023701C4440EA0940A4EB0804A0FB02894C45F3
S214402380C6464D4615D312D056B1BAEB0E0364EB93
S214402390050404FA07F7CB401F43CC40376074600F
S2144023A00021BDE8F0871846F8E69046E0E6C245CC
S2144023B0EAD2B8EB020E69EB03050138E4E728469B
S2144023C0D7E7404691E78146BEE7014678E70238C0
S2144023D03C4445E7084608E7A8F102083D442BE799
S2144023E0704700BF70B50F4E0F4D761BB61018BF26
S2144023F0002405D0013455F8043B9847A642F9D14D
S2144024000A4E0B4D761B00F033FDB61018BF002465
S21440241006D0013455F8043B9847A642F9D170BD22
S21440242070BD00BF7C2E40007C2E4000842E4000B5
S2144024307C2E400080EA0102844612F0030F4FD102
S21440244011F0030F32D14DF8044D11F0040F51F83E
S214402450043B0BD0A3F101329A4312F0803F04BFF5
S2144024604CF8043B51F8043B16D100BF51F8044BDE
S214402470A3F101329A4312F0803FA4F101320BD10E
S2144024804CF8043BA24312F0803F04BF51F8043B93
S2144024904CF8044BEAD023460CF8013B13F0FF0FF0
S2144024A04FEA3323F8D15DF8044B704711F0010F23
S2144024B006D011F8012B0CF8012B002A08BF7047F4
S2144024C011F0020FBFD031F8022B12F0FF0F16BFEB
S2144024D02CF8022B8CF8002012F47F4FB3D17047B3
S2144024E011F8012B0CF8012B002AF9D1704700BFD8
S2144024F02DE9F0414FF0010E744600254FF0FF36AF
S2144025002B198B4200EB06070DD23F5D10F803C037
S214402510BC452DD21D460124A3EB060E2B198B423B
S21440252000EB0607F1D34FF00108C2F800E044463E
S21440253000254FF0FF372B19994200EB070E0ED9B6
S2144025401EF804E010F803C0F44518D91D460124CF
S214402550A3EB07082B19994200EB070EF0D801377A
S214402560701C874224BFC2F800803846BDE8F08120
S2144025700CD04FF0010E2E4674467544C0E70BD083
S2144025804FF001082F4644464544D4E7744512BFF1
S21440259001341D460124B3E7444512BF01341D46AD
S2144025A00124C8E72DE9F04FADF2144D1646054616
S2144025B08B461046194603AA1C46FFF799FF03AB05
S2144025C081460DF20C4243F8044F9342FBD14CB186
S2144025D0631E721E04A812F8011F40F8213013F142
S2144025E0FF33F8D203994A463144304600F068FA41
S2144025F000286FD109F1FF330093F3188246019308
S21440260023468046544658469A4608EB0A073A1AE6
S2144026100021284400F004FA002856D1002F54D058
S214402620EB1904AA13F8013C52F823304BB124B1FD
S214402630039A934201D2AAEB0203984400243846F8
S214402640E3E74C4523460AF1FF3E38BF4B46734509
S21440265013D208EB030216F803C0A85C84452A444C
S21440266006EB030106D02CE011F801CF12F8010F5B
S214402670844526D101337345F6D34C45009980F006
S2144026808980009B08EB0302019BA85C1B7898425C
S2144026902A447FD1019804F1FF3B06E010F801CDB3
S2144026A012F801EDF44503D119464B1E9B45F5D172
S2144026B001348C4270D8039C3846A044AAEB0404EC
S2144026C0A3E7C9F101029044B7E700200DF2144D8C
S2144026D0BDE8F08FA4EB09034B4538BF4B460133AA
S2144026E009F1FF38039306EB080358464FF0000AFB
S2144026F0CB4699460AEB04073A1A0021284400F0D4
S2144027008FF90028E1D1002FDFD0EB1904AA13F887
S214402710013C52F82330A3BB611E8B4515D20AEB11
S2144027200B0216F80B3015F802E09E452A4406EBDD
S2144027300B005B4606D027E010F801CF12F801EFF9
S214402740F44521D101338B42F6D3B8F1FF3F11D087
S2144027500AEB080299F80010AB5C99422A440FD164
S2144027604B4605E013F8010D12F8011D884207D1CB
S214402770B342F7D105EB0A000DF2144DBDE8F08FD9
S214402780039B9A443846B5E7CBF1010292449A44FB
S2144027903846AFE749468BE705EB080096E700BFAB
S2144027A00278002A00F001812DE9F04F91F8008070
S2144027B085B04446B8F1000F16D0864601F1010CAC
S2144027C0012703E013F8014B6CB19C46A24214BFAC
S2144027D0002707F001071EF8012F6346002AF1D1B3
S2144027E09CF80030FBB917B105B0BDE8F08F0E4637
S2144027F0054641460130ACEB060400F091F9074629
S21440280088B1012CF0D02819874294BFC11B012102
S2144028101F2C8B460BD9234632463846FFF7C2FE5E
S21440282005B0BDE8F08F002005B0BDE8F08F03AAE4
S21440283021463046FFF75CFE039980460246314407
S214402840304600F03DF9002857D108F1FF33009399
S214402850F3188146054601935846B2466619321A21
S2144028600021384400F0DCF80028DCD1002EDAD015
S214402870C845434638BF4B469C4212D95A191AF8A7
S2144028800310B85C81423A440AEB030E06D02CE0B3
S2144028901EF8010F12F8011F884226D101339C42D0
S2144028A0F6D1C845009940F28380009BEA18019B08
S2144028B0B85C1B7898423A447AD1019809F1FF3BBC
S2144028C006E010F801CD12F801EDF44503D11946A3
S2144028D04B1E5B45F5D109F10109894557D8039B45
S2144028E030461D44A4EB0309B8E7C8F1010215447D
S2144028F01D444FF000093046B0E7A4EB08034345BB
S21440290038BF4346013308F1FF39039306EB09030A
S21440291058460025BB469A4667193A1A002158443D
S21440292000F07EF800287FF47EAF002F3FF47BAFA8
S214402930444515D908EB050216F808301BF8020086
S21440294098425A4406EB0801434606D023E011F865
S21440295001EF12F8010F86451DD101339C42F6D196
S214402960B9F1FF3F12D005EB09029AF800301BF888
S214402970021099425A4414D1534605E013F8010D0B
S21440298012F8011D88420CD1B342F7D15F46781940
S21440299005B0BDE8F08FC8F1010215441D44384625
S2144029A0BAE7039B38461D44B6E70B7813B9704721
S2144029B0414690E700207047024B13B1024800F0B2
S2144029C005B8704700000000D929400000230146A2
S2144029D01A46184600F018B938B50A4C0A4D641B1A
S2144029E0A4100AD004F18043013B05EB8305013C6B
S2144029F055F804399847002CF9D1BDE8384000F026
S214402A0041BA00BF942E4000902E4000704700BF51
S214402A10704700BF000000000000000000000000FB
S214402A2001F0FF01102A2BDB10F0070F08D010F83A
S214402A30013B013A8B422DD010F0070F42B3F6D13E
S214402A40F0B441EA012141EA014122F007047FF057
S214402A5000070023F0E80256083C85EA010586EAAE
S214402A60010685FA47F5A3FA87F586FA47F6A5FAEA
S214402A7087F68EB9EED1F0BC01F0FF0102F00702F6
S214402A8032B110F8013B013A83EA010313B1F8D1A1
S214402A900020704701387047002D06BF3546033882
S214402AA0073815F0010F07D1013015F4807F02BFBB
S214402AB0013015F4C03F0130F0BC0138704700BF0C
S214402AC0032A70B422D940EA01039B0711D0037849
S214402AD00C78A3421DD10A44013105E010F8013FAD
S214402AE011F8014BA34214D19142F7D1002070BC9B
S214402AF070470D680668AE420C46034601F1040175
S214402B0000F1040008D1043A032AF2D8002ADED1A4
S214402B10ECE7181B70BC704721461846D7E700BF45
S214402B20C9B2002941D08207F0B467D00378002BA1
S214402B3068D0994237D0431C04E013F8010B90B399
S214402B4081422FD09A071C46F7D1256841EA0123D7
S214402B5043EA034383EA0506A6F10130A5F10132B4
S214402B6020EA060022EA0502024312F0803F11D115
S214402B70204650F8046F83EA0607A7F10135A6F110
S214402B80013225EA070522EA06022A4312F0803F70
S214402B90EFD00446207818B905E014F8010F10B1BC
S214402BA08142FAD12046F0BC7047830724D0037890
S214402BB0002BF9D0431C03E002780133002AF3D0FF
S214402BC099071846F8D11968A1F1013222EA0102A4
S214402BD012F0803F08D153F8041FA1F1013222EAD7
S214402BE0010212F0803FF6D01A78184642B110F82B
S214402BF0013F002BFBD170470346E4E70446A4E7B9
S214402C00184670471846CEE72DE9F8432C4D064641
S214402C10286898460F469146FFF7F8FE294B1C68F1
S214402C20D4F84831002B3ED05A681F2A1CDC02F1EB
S214402C30010E76B103EB82010124C1F88890D3F8E7
S214402C40880194402043022EC3F88801C1F80881C9
S214402C5023D00232C3F804E0286843F82270FFF716
S214402C60D7FE0020BDE8F883174B0BB34FF4C8706F
S214402C70AFF300800346D8B1D4F848210260002163
S214402C8041600A46C4F848014FF0010EC0F888116A
S214402C90C0F88C11002EDCD0CCE7D3F88C110C4356
S214402CA0C3F88C41D5E704F5A673C4F84831BBE7B2
S214402CB02868FFF7ADFE4FF0FF30BDE8F88300BF51
S214402CC0380400206C2E40000000000053746172EF
S214402CD074207472616E736665720000436C696539
S214402CE06E74206E6F7420636F6E6E656374656479
S214402CF000000000436F6D6D616E64206661696C14
S214402D00656400004E6F6E650000000000C2010062
S214402D10C0000000000800000000000000000000A6
S214402D20000000007365742073797374656D2E63BC
S214402D306D642E6563686F206F66660D0A0000003E
S214402D4073657420756172742E666C6F77203020C0
S214402D506F6E0D0A00000000736574206275206374
S214402D6020722031303030300D0A000073657420F8
S214402D7073797374656D2E696E64696361746F727E
S214402D802E6770696F20776C616E2032300D0A00B6
S214402D907365742073797374656D2E696E646963A8
S214402DA061746F722E6770696F206E6574776F728C
S214402DB06B2031380D0A0000736574207379737484
S214402DC0656D2E696E64696361746F722E67706993
S214402DD06F20736F667461702032310D0A000000F8
S214402DE07365742073797374656D2E636D642E6796
S214402DF070696F2031360D0A00000000736574203C
S214402E00776C616E2E6E6574776F726B2E7374611D
S214402E107475735F6770696F2031340D0A00000067
S214402E20736176650D0A000073657475702077656A
S214402E30620D0A0062756D700D0A0000666F7020A4
S214402E40746573742E7478740D0A0000667374206B
S214402E50746573742E7478740D0A0000726561642C
S214402E60200000005065747261730000100000205E
S214402E70F8B500BFF8BC08BC9E467047B92940006C
S214402E80F1004000F8B500BFF8BC08BC9E4670474D
S208402E90CD004000EC
S20C402E9470F2FF7F0100000010
S214402E9CBFF35F8F0138FBD17047000000093D003F
S214402EAC00000000FC02002064030020CC0300203D
S214402EBC00000000000000000000000000000000C1
S214402ECC00000000000000000000000000000000B1
S214402EDC00000000000000000000000000000000A1
S214402EEC0000000000000000000000000000000091
S214402EFC0000000000000000000000000000000081
S214402F0C0000000000000000000000000000000070
S214402F1C0000000000000000000000000000000060
S214402F2C0000000000000000000000000000000050
S214402F3C0000000000000000000000000000000040
S214402F4C000000000000000001000000000000002F
S214402F5C0E33CDAB34126DE6ECDE05000B000000F4
S214402F6C0000000000000000000000000000000010
S214402F7C0000000000000000000000000000000000
S214402F8C00000000000000000000000000000000F0
S214402F9C00000000000000000000000000000000E0
S2104032CC0000000000000000B48F01204D
S804401BADF3
